:1000000005C1000034C1000032C1000030C1000051
:100010002EC100002CC100002AC1000028C1000030
:1000200026C1000024C1000022C1000020C1000040
:100030001EC100001CC100001AC1000018C1000050
:1000400016C1000014C1000012C1000010C1000060
:100050000EC100000CC100000AC1000080C70000F2
:1000600006C100000C94BF0A0C94F50A00C1000000
:10007000FEC00000FCC00000FAC00000F8C0000094
:10008000F6C00000F4C00000F2C00000F0C00000A4
:10009000EEC00000ECC00000EAC0000032C6000064
:1000A000E6C00000E4C00000E2C00000E0C00000C4
:1000B000DEC00000DCC00000DAC00000D8C00000D4
:1000C000D6C00000D4C00000D2C00000D0C00000E4
:1000D000CEC00000CCC00000CAC00000C8C00000F4
:1000E000C6C00000E101E601EB01F001F501FC01F1
:1000F00003020A021102E008E308D208D608DC086D
:100100001A09E708EB08F108F508F908FF080309E0
:1001100007091A090D091109150900000A0B02093E
:100120000C0D0E0807030401000000000000000091
:1001300000000000000000000000000000000000BF
:10014000000000000000121110000000000000007C
:10015000000000000000000000000000000000009F
:1001600001021020200808102040102040800201C9
:1001700002010804020101020408102040808040AE
:1001800020100804020180040201804020100804AD
:10019000020108040201010204081020408001024B
:1001A0000408102040800505050507050808080813
:1001B000020202020A0A08080404040401010101FF
:1001C00001010101030303030303030304070707FA
:1001D0000C0C0C0C0C0C0C0C02020202060606069F
:1001E000060606060B0B0B0B0B0B0B0B000022007D
:1001F000250028002B002E003100340002010000F1
:10020000050108010B0134052B06270B11241FBE25
:10021000CFEFD1E2DEBFCDBF00E00CBF12E0A0E027
:10022000B2E0E8E4FBE100E00BBF02C007900D92F2
:10023000AE39B107D9F725E0AEE9B2E001C01D92B1
:10024000A23EB207E1F712E0CCE0D2E000E006C047
:1002500022970109FE010BBF0E94180DC630D1077D
:1002600080E00807A9F70E946B0B0C94A20DC8CE82
:10027000DC01ED91FC910190F081E02D199481E079
:1002800008950895E1E0F1E020812064208320E4D6
:10029000FC01228322E031E03483238308952F92EE
:1002A0003F924F925F926F927F928F929F92AF9206
:1002B000BF92CF92DF92EF92FF920F931F93CF9353
:1002C000DF9300D01F92CDB7DEB7809016029090DA
:1002D0001702E0900402F0900502C0901202D09044
:1002E000130229E933E03C832B83ABE9B3E08AE7CF
:1002F00093E09A83898380E090E026EB222E22E02F
:10030000322E3AEB432E32E0532E4EEB642E42E077
:10031000742E52ECA52E52E0B52E41E050E06AE575
:1003200072E008E512E0E981FA81128A118A9D01E2
:1003300021503109F90110828430910564F500974C
:1003400041F0E981FA81208131812B5E3F4F328B70
:10035000218BE981FA8121893289243131051CF010
:10036000F1E0FC9301C01C92E981FA81568B458B28
:10037000748B638B108F078B528F418F2CE030E092
:10038000348F238F20E432E0368F258F21E0EB81FC
:10039000FC8120835EC0E981FA81968A858A9C016E
:1003A000255031092930310528F42E583F4FF901E5
:1003B0000C94080D26EC32E03093D2032093D10345
:1003C00036C0B092E303A092E20331C07092F4030E
:1003D0006092F3032CC0509205044092040427C09D
:1003E000309216042092150422C0E2EBF2E0F09362
:1003F0002704E09326041BC02EEA32E03093380431
:100400002093370414C0EAEAF2E0F0934904E09341
:1004100048040DC026EA32E030935A042093590470
:1004200006C0E2EAF2E0F0936B04E0936A0424E190
:1004300032E0E981FA81308F278BF28EE18ED48E03
:10044000C38E26E032E0368F258FEB81FC8110824F
:100450001C9201962B813C812F5E3F4F3C832B8366
:100460005196E981FA817196FA83E9838E3091057C
:1004700009F059CF0F900F900F900F90DF91CF910F
:100480001F910F91FF90EF90DF90CF90BF90AF90B2
:100490009F908F907F906F905F904F903F902F90A4
:1004A0000895E091CC02F091CD020190F081E02D11
:1004B0008CEC92E0199526E040E855E260E070E0AF
:1004C00085E495E0FCD7EBDE62E070E089E794E03C
:1004D000BCD36BE375E089E794E0B8C31F93CF9377
:1004E000DF9380E030D6BC01882777FD8095982F78
:1004F0000E94720CEDEDF3E084E090E02081211188
:1005000026C021E1289FE001299FD00D1124C55765
:10051000DC4F11E01E872AE030E040E050E060E070
:1005200070E0CB010E949B0CFB01EE0FFF1FEE0F52
:10053000FF1FE85EFD4F80819181A281B381EA8136
:10054000FB8180839183A283B3831F8705C00196BB
:1005500071968E30910591F6DF91CF911F9108959C
:100560004AEB50E063E070E081ED92E00C94950D71
:10057000E091CC02F091CD020480F581E02D4EE3B4
:1005800050E061ED72E08CEC92E01994E9DFF0CF7D
:100590000F931F93462F082F672F702F842F1F91C3
:1005A0000F9108952F923F924F925F926F927F9298
:1005B0008F929F92AF92BF92CF92DF92EF92FF9273
:1005C0000F931F93CF93DF93CDB7DEB766970FB628
:1005D000F894DEBF0FBECDBF988B8F87D7DF29E998
:1005E00033E03A8329833AE9C32E33E0D32E4BE933
:1005F000E42E43E0F42E4AE853E05E8B4D8B00E09E
:1006000010E0A981BA818C91882309F44AC1ED894F
:10061000FE89258136814901F1E08F1A9108C801D0
:1006200001968430910511F480E090E0A901440F17
:10063000551F5A874987212C312C2D893E892250FC
:1006400031093A8B298B61E1689FA001699F500DA8
:10065000112445565C4F5E834D8329853A8522508F
:1006600031093C8B2B8B97FCD0C0D6018C91882311
:10067000B1F0043011051CF4ED81FE810AC0043094
:10068000110559F0A989BA898C91882331F0ED8937
:10069000FE898081882309F4B8C0D6011C9289851F
:1006A0009A85820D931D82509048880F991FAD89BD
:1006B000BE891396ED91FC911497E80FF91F6081A4
:1006C00071818281938164DFED89FE890780F085E5
:1006D000E02D2B893C89220D331DE20FF31FFC8393
:1006E000EB83272F30E038872F83462F50E05C873D
:1006F0004B87E82FF0E0FE87ED87E091CA02F0918A
:10070000CB0220919E0230919F02412C512CAB8153
:10071000BC818D919C91481659060CF067C0AD893B
:10072000BE8911968D919C9112978E0F9F1F1B96DB
:100730004D915C911C97841B950B01968E3391050E
:1007400008F04BC0A901440F551F1D96AD90BC90F9
:100750001E97A40EB51E3C01660C771C680E791E10
:10076000A3014F525D4F3A01D5014D915C916F81CC
:100770007885649FC001659F900D749F900D112432
:1007800064E670E00E94B70CD30111966C93D5011A
:100790004D915C916B857C85649FC001659F900D38
:1007A000749F900D112464E670E00E94B70CD30191
:1007B0006C93D5014D915C916D857E85649FC001E0
:1007C000659F900D749F900D112464E670E00E9467
:1007D000B70CD30112966C9302C097FF03C02F5F32
:1007E0003F4F3196BFEF4B1A5B0A91CFF093CB028C
:1007F000E093CA0230939F0220939E02B1E08B1ACD
:100800009108E2E02E1A31082ECF1092CB021092FE
:10081000CA02D6018C9181110AC0ED89FE898181BD
:10082000928121853285820F931F92838183D70124
:100830008C91811119C0ED89FE89818192810430EA
:1008400011052CF4449784F0F1E0FC930DC0AD89C0
:10085000BE8919962D913C911A97821B930B06978E
:100860001CF021E0F7012083AD89BE8911968D919E
:100870009C9112971B962D913C911C97821B930B78
:10088000CE977CF012961C921E921197043011059F
:100890000CF444C0E981FA811082D6011C92F70160
:1008A000108210929F0210929E020F5F1F4F2981AB
:1008B0003A812F5E3F4F3A83298331E1C30ED11C29
:1008C00041E1E40EF11C2D893E892F5E3F4F3E8BA6
:1008D0002D8B0E30110509F094CE4ADE4F855889D4
:1008E000BA01882777FD8095982F66960FB6F89401
:1008F000DEBF0FBECDBFDF91CF911F910F91FF9053
:10090000EF90DF90CF90BF90AF909F908F907F90AF
:100910006F905F904F903F902F908EC3E1E0D60193
:10092000EC93D7011C92BDCF80E590E03BCE0F93B6
:10093000001401E00A95F1F70F9108950F93001448
:1009400002E00A95F1F70F910895DF92EF92FF927E
:100950000F931F93CF93DF93F894DC011296FC90D2
:1009600012971396ED91FC911497EA01CC0FDD1FBD
:10097000C40FD51FC60FD71FE080EF288081F094E9
:10098000F822F0828B01C017D10708F464C0F80187
:10099000D1908F01E0920201001400140014D7FEE0
:1009A000F0920201C4DFF0920201C8DFE09202017E
:1009B000001400140014D6FEF0920201B8DFF09289
:1009C0000201BCDFE0920201001400140014D5FE05
:1009D000F0920201ACDFF0920201B0DFE09202017E
:1009E000001400140014D4FEF0920201A0DFF09273
:1009F0000201A4DFE0920201001400140014D3FEEF
:100A0000F092020194DFF092020198DFE09202017D
:100A1000001400140014D2FEF092020188DFF0925C
:100A200002018CDFE0920201001400140014D1FED8
:100A3000F09202017CDFF092020180DFE09202017D
:100A4000001400140014D0FEF092020170DFF09246
:100A50000201001498CF7894DF91CF911F910F91EC
:100A6000FF90EF90DF90089583E692E09093CD029F
:100A70008093CC02089589E794E013D09093A1026B
:100A80008093A0024AE050E0BC0185E495E014D7D1
:100A900025CD8091AC0490E02091AD04821B91099A
:100AA00008952091AD048091AC04281750F4E22FF2
:100AB000F0E0E255FB4F808190E02F5F2093AD0482
:100AC00008958FEF9FEF0895E091AD048091AC04FD
:100AD000E81730F4F0E0E255FB4F808190E0089594
:100AE0008FEF9FEF08950895E0918504F0918604BB
:100AF0003097E1F03091AD042091AC043217B0F0A2
:100B000040E0242F30E02617370754F4DC01A20F11
:100B1000B31F5C91D901A255BB4F5C934F5FF1CFDE
:100B20001092AD046093AC04CB0119940895E09148
:100B30008704F0918804309729F010928B0410926A
:100B40008A0419940895CF92DF92EF92FF920F9347
:100B50001F93CF93DF937C01CB018A0120918904FD
:100B6000222389F0EB016B01C40ED51ECC15DD05E7
:100B700061F06991D701ED91FC910190F081E02D38
:100B8000C7011995F3CF642F89D0C801DF91CF91A8
:100B90001F910F91FF90EF90DF90CF900895CF932A
:100BA000DF931F92CDB7DEB769832091890422239A
:100BB000D1F020918A04203240F021E030E0FC01A5
:100BC0003383228380E090E014C080918B04E82F6F
:100BD000F0E0E457FB4F998190838F5F80938B0403
:100BE00080938A0404C061E0CE01019657D081E071
:100BF00090E00F90DF91CF910895FC011382128253
:100C000048EE53E060E070E0448355836683778369
:100C100081E792E09183808308951092AD04109251
:100C2000AC0410928B0410928A0418C0CF93DF9307
:100C3000EC01862F2FD087E995E04ED084E795E030
:100C400046D0CE01DF91CF91E8CFF0CF70938604EC
:100C500060938504089589E794E0CFCF10923B0517
:100C600081E0809339051092380561E084E1E3D298
:100C700061E085E1E0D2E9EBF0E080818E7F808366
:100C800080818D7F808388E48093B80085E48093A1
:100C9000BC000895880F8093BA000895613298F4DB
:100CA00020913B05243089F46093F004FC0182EF2D
:100CB00094E0DC012A2F281B261718F421912D938C
:100CC000F9CF80E0089581E0089582E0089590933F
:100CD0003505809334050895909337058093360544
:100CE000089585ED8093BC008091BC0084FDFCCF0D
:100CF00010923B05089585EC8093BC0010923B0553
:100D000008951F920F920FB60F9211240BB60F92F7
:100D10002F933F934F935F936F937F938F939F9303
:100D2000AF93BF93EF93FF938091B900887F803694
:100D300009F49CC068F5883209F45BC090F48031F6
:100D400009F454C038F4882309F4F3C0883009F456
:100D50004DC0F2C0883109F44CC0803209F45DC046
:100D6000EBC0803409F468C048F4803309F455C0FE
:100D7000883309F0E1C08093CE04A7C0803509F420
:100D80004FC0883509F45DC0883409F0D5C0D3C0A0
:100D9000883909F4C4C0A8F4883709F467C038F466
:100DA000883609F463C0803709F460C0C5C088384C
:100DB00009F4B5C0803909F45FC0803809F0BCC0BF
:100DC0005BC0803B09F483C038F4803A09F466C004
:100DD000883A09F47CC0B0C0803C09F4A4C0883CC7
:100DE00009F4A1C0883B09F487C0A6C080913A05E8
:100DF00010C09091130580911205981770F5E0913D
:100E0000130581E08E0F80931305F0E0EC5EFA4F3E
:100E100080818093BB0085EC83C08093CE048BC01F
:100E2000E091130581E08E0F809313058091BB0044
:100E3000F0E0EC5EFA4F80839091130580911205EB
:100E40006BC0E091130581E08E0F809313058091B4
:100E5000BB00F0E0EC5EFA4F808380913905811190
:100E60006AC081E08093380584EA5EC083E08093A5
:100E70003B051092CF04CFCF8091CF04803208F091
:100E80004EC0E091CF0481E08E0F8093CF0480911B
:100E9000BB00F0E0E053FB4F8083BDCF8091CF04D7
:100EA000803230F4E091CF04F0E0E053FB4F108249
:100EB00018DF6091CF0470E0E0913405F0913505C2
:100EC00080ED94E019951092CF0415DF35C084E0D1
:100ED00080933B051092F1041092F004E0913605E6
:100EE000F091370519958091F004811105C081E0DA
:100EF0008093F0041092F204E091F10481E08E0FEF
:100F00008093F104F0E0EE50FB4F80818093BB00B2
:100F10009091F1048091F004981708F47CCF85E853
:100F20008093BC0009C085EC8093BC0010923B0507
:100F300003C01092CE04D5DEFF91EF91BF91AF9127
:100F40009F918F917F916F915F914F913F912F91E1
:100F50000F900BBE0F900FBE0F901F9018951F9211
:100F60000F920FB60F9211242F933F938F939F935D
:100F7000AF93BF9380913D0590913E05A0913F05B1
:100F8000B091400530913C0523E0230F2D3720F42C
:100F90000196A11DB11D05C026E8230F0296A11DD3
:100FA000B11D20933C0580933D0590933E05A09391
:100FB0003F05B09340058091410590914205A09175
:100FC0004305B09144050196A11DB11D80934105D3
:100FD00090934205A0934305B0934405BF91AF9110
:100FE0009F918F913F912F910F900FBE0F901F9067
:100FF00018953FB7F8948091410590914205A091D2
:101000004305B091440526B5A89B05C02F3F19F0B4
:101010000196A11DB11D3FBF6627782F892F9A2FFA
:10102000620F711D811D911D42E0660F771F881FA1
:10103000991F4A95D1F70895CF92DF92EF92FF92D0
:10104000CF93DF936B017C01D4DFEB01C114D1049A
:10105000E104F10479F08AD4CCDF6C1B7D0B683E8F
:101060007340A0F381E0C81AD108E108F108C85123
:10107000DC4FECCFDF91CF91FF90EF90DF90CF90DE
:101080000895789484B5826084BD84B5816084BD00
:1010900085B5826085BD85B5816085BDEEE6F0E0F1
:1010A000808181608083E1E8F0E01082808182604D
:1010B0008083808181608083E0E8F0E080818160CE
:1010C0008083E1EBF0E0808184608083E0EBF0E0FE
:1010D000808181608083E1E9F0E0808182608083AB
:1010E000808181608083E0E9F0E08081816080839D
:1010F000E1EAF0E08081826080838081816080838A
:10110000E0EAF0E0808181608083E1E2F1E08081CB
:1011100082608083808181608083E0E2F1E0808171
:1011200081608083EAE7F0E0808184608083808151
:1011300082608083808181608083808180688083F9
:101140001092C1000895863308F0865320917B00E9
:10115000982F9870277F922B90937B008770209117
:101160005E0290E4299F90011124822B80937C00E1
:1011700080917A00806480937A0080917A0086FD65
:10118000FCCF809178002091790090E0922B089517
:1011900090E0FC013197E231F10508F04BC0E558D1
:1011A000FF4F36C4809180008F7703C0809180000C
:1011B0008F7D80938000089580918000877FF9CF94
:1011C00084B58F7702C084B58F7D84BD08958091EA
:1011D000B0008F7703C08091B0008F7D8093B00006
:1011E0000895809190008F7707C0809190008F7D47
:1011F00003C080919000877F809390000895809134
:10120000A0008F7707C08091A0008F7D03C08091E0
:10121000A000877F8093A0000895809120018F77A0
:1012200007C0809120018F7D03C080912001877FBE
:101230008093200108950F931F93CF93DF931F9204
:10124000CDB7DEB7282F30E0F901E65EFE4F84917E
:10125000F901E05AFE4F1491F901EA55FE4F04914D
:101260000023C1F0882319F0698392DF6981E02FA0
:10127000F0E0EE0FFF1FE451FE4FA591B4919FB730
:10128000F8948C91611103C01095812301C0812BCA
:101290008C939FBF0F90DF91CF911F910F91089575
:1012A000FC01818D228D90E0805C9F4F821B910913
:1012B0008F7399270895FC01918D828D981731F0D5
:1012C000828DE80FF11D858D90E008958FEF9FEFDF
:1012D0000895FC01918D828D981761F0828DDF0158
:1012E000A80FB11D5D968C91928D9F5F9F73928F19
:1012F00090E008958FEF9FEF08958EE19BE0892B9A
:1013000039F080E090E0892B19F098D1811125C047
:1013100080E090E0892B41F080E090E0892B21F083
:101320000E94000081111CC080E090E0892B41F0F8
:1013300080E090E0892B21F00E940000811113C011
:1013400080E090E0892BA1F080E090E0892B81F093
:101350000E94000081110AC008950E940000D8CFA9
:101360000E940000E1CF0E940000EACF0C94000030
:101370000895FC01848DDF01A80FB11DA35ABF4F52
:101380002C91848D90E001968F739927848FA68984
:10139000B7892C93A089B1898C9180648C93938DAB
:1013A000848D981306C00288F389E02D80818F7D9B
:1013B00080830895CF93DF93EC01888D8823C1F05B
:1013C000EA89FB89808185FD05C0A889B9898C914E
:1013D00086FD0EC00FB607FCF5CF808185FFF2CFEA
:1013E000A889B9898C9185FFEDCFCE01C2DFE8CF06
:1013F000DF91CF910895CF92DF92FF920F931F93C9
:10140000CF93DF931F92CDB7DEB76C0181E0D60199
:1014100058968C9358975B969C915B975C968C91B1
:101420005C97981307C05096ED91FC91519780817D
:1014300085FD2DC0F601038D10E00F5F1F4F0F7368
:101440001127F02EF601848DF81210C00FB607FC9C
:10145000F9CFD6015096ED91FC915197808185FF8F
:10146000F1CFC601698385DF6981ECCF838DE80FF9
:10147000F11DE35AFF4F6083D6015B960C935B9797
:101480005296ED91FC915397808180620CC0D601F9
:101490005696ED91FC91579760835096ED91FC9193
:1014A000519780818064808381E090E00F90DF918C
:1014B000CF911F910F91FF90DF90CF900895BF9231
:1014C000CF92DF92EF92FF92CF93DF93EC016A010C
:1014D0007B01B22EE889F98982E08083411581EE93
:1014E00058076105710599F060E079E08DE390E0BF
:1014F000A70196014FD22150310941095109569552
:10150000479537952795211580E1380790F0E889B0
:10151000F989108260E874E88EE190E0A7019601F5
:1015200039D22150310941095109569547953795CE
:101530002795EC85FD853083EE85FF852083188E09
:10154000EC89FD89B082EA89FB8980818061808392
:10155000EA89FB89808188608083EA89FB898081B0
:1015600080688083EA89FB8980818F7D8083DF9119
:10157000CF91FF90EF90DF90CF90BF9008951F9292
:101580000F920FB60F9211240BB60F922F938F93D9
:101590009F93EF93FF93E0915505F091560580815D
:1015A000E0915B05F0915C0582FD12C09081809115
:1015B0005E058F5F8F7320915F05821751F0E09178
:1015C0005E05F0E0EB5BFA4F958F80935E0501C0FE
:1015D0008081FF91EF919F918F912F910F900BBE82
:1015E0000F900FBE0F901F9018951F920F920FB67D
:1015F0000F9211240BB60F922F933F934F935F934B
:101600006F937F938F939F93AF93BF93EF93FF93CA
:1016100085E495E0AEDEFF91EF91BF91AF919F9190
:101620008F917F916F915F914F913F912F910F908B
:101630000BBE0F900FBE0F901F90189585E495E09C
:101640002FDE21E0892B09F420E0822F08951092EB
:1016500048051092470588EE93E0A0E0B0E0809343
:10166000490590934A05A0934B05B0934C0581E83A
:1016700092E0909346058093450585EC90E0909329
:1016800052058093510584EC90E09093540580932B
:10169000530580EC90E0909356058093550581ECBE
:1016A00090E0909358058093570582EC90E09093DA
:1016B0005A058093590586EC90E090935C058093E1
:1016C0005B0510925E0510925F0510926005109206
:1016D000610508950895D5DCFDDF0E945102CDE734
:1016E000D9E022D92097E9F308DEFBCFCF92DF9231
:1016F000EF92FF920F931F93CF93DF936C017A01C8
:10170000EB01E60EF71E00E010E0CE15DF0561F0FC
:101710006991D601ED91FC910190F081E02DC60117
:101720001995080F191FF1CFC801DF91CF911F91B3
:101730000F91FF90EF90DF90CF90089561157105A4
:1017400081F0DB010D900020E9F7AD014150510916
:10175000461B570BDC01ED91FC910280F381E02DDB
:10176000199480E090E00895DC01ED91FC910190E6
:10177000F081E02D19946DE872E0E0CF8F929F9296
:10178000AF92BF92CF92DF92EF92FF920F931F938F
:10179000CF93DF93CDB7DEB7A1970FB6F894DEBF36
:1017A0000FBECDBF7C01C42EE52FCB01D22E19A2D6
:1017B00021E02D1510F02AE0D22E8E010F5D1F4F73
:1017C0008D2C912CA12CB12C6C2D7E2FA501940178
:1017D000E1D08C2DD29E80191124015011098A303C
:1017E00014F4805D01C0895CF80180832115310506
:1017F0004105510521F0C22EE32FCA01E5CFB80102
:10180000C7019CDFA1960FB6F894DEBF0FBECDBF17
:10181000DF91CF911F910F91FF90EF90DF90CF90CC
:10182000BF90AF909F908F900895CF92DF92EF92EC
:10183000FF920F931F93CF93DF93EC016A017B011B
:101840002115310579F4E881F9810190F081E02DCD
:10185000642FDF91CF911F910F91FF90EF90DF9058
:10186000CF9019942A303105D9F477FF18C06DE272
:101870007BDF8C0144275527BA014C195D096E099D
:101880007F092AE0CE017ADF800F911FDF91CF918F
:101890001F910F91FF90EF90DF90CF9008952AE075
:1018A000B701A601CE01DF91CF911F910F91FF905B
:1018B000EF90DF90CF9062CF0F931F93CF93DF9382
:1018C000EC019A01AB01662757FD6095762FADDFDD
:1018D0008C01CE0150DF800F911FDF91CF911F91BE
:1018E0000F910895611571058105910509F014C1E5
:1018F0000895CF93DF9300D01F92CDB7DEB79B0141
:10190000AC01611571058105910559F069833A8330
:101910004B835C83FED029813A814B815C815CD012
:1019200003C060E070E0CB010F900F900F900F901C
:10193000DF91CF910895CF92DF92EF92FF926B01EA
:101940007C0162177307840795075CF4CA01B9012B
:101950006C197D098E099F09CCDF6C0D7D1D8E1DD4
:101960009F1DFF90EF90DF90CF900895089597FB13
:10197000072E16F4009406D077FD08D05DD007FC42
:1019800005D03EF4909581959F4F0895709561958F
:101990007F4F0895A1E21A2EAA1BBB1BFD010DC0AB
:1019A000AA1FBB1FEE1FFF1FA217B307E407F5070F
:1019B00020F0A21BB30BE40BF50B661F771F881FEB
:1019C000991F1A9469F760957095809590959B0181
:1019D000AC01BD01CF010895052E97FB16F40094CC
:1019E0000FD057FD05D0D6DF07FC02D046F408C063
:1019F00050954095309521953F4F4F4F5F4F08953B
:101A000090958095709561957F4F8F4F9F4F08956A
:101A1000EE0FFF1F0590F491E02D199421D0A59FA2
:101A2000900DB49F900DA49F800D911D11240895D9
:101A30000790F691E02D1994AA1BBB1B51E107C03A
:101A4000AA1FBB1FA617B70710F0A61BB70B881F4E
:101A5000991F5A95A9F780959095BC01CD010895DD
:101A6000A29FB001B39FC001A39F700D811D1124DF
:101A7000911DB29F700D811D1124911D08958F92AB
:101A80009F92AF92BF92CF92DF92EF92FF92CF934D
:101A9000DF93EC01688179818A819B8161157105F1
:101AA0008105910521F464E279ED8BE597E02DE164
:101AB00033EF41E050E090DF49015A019B01AC0156
:101AC000A7EAB1E4ABDF6B017C01ACEEB4EFA5019A
:101AD000940134D0C60ED71EE81EF91EF7FE06C0CC
:101AE00081E0C81AD108E10880E8F80AC882D982E2
:101AF000EA82FB82C701B6019F77DF91CF91FF9009
:101B0000EF90DF90CF90BF90AF909F908F9008950F
:101B1000B6CF80E092E0B3CF6093000270930102F1
:101B200080930202909303020895DC0101C06D933B
:101B300041505040E0F70895B7FF70CF6FDF821B30
:081B4000930B0895F894FFCF08
:101B48000100000004006400640064006400640094
:101B580064000600060001000000FF0000FF00000E
:101B6800FF000000FFFF000000FFFF0066006600A6
:101B7800CC00FF0000ABFF00FF0900000080FF0061
:101B880005000A000F00140019001E001E001900AD
:101B980014000F000A0005000C00FFFFFF00010001
:101BA80000000042013801A5043F01410100000086
:101BB80000CF05A30549055105640573050000001C
:101BC80000FB09760B500969095B09DA090D0A005F
:0E1BD8006E616E00696E66006F7666002E000C
:00000001FF
