:100000000C9471010C9499010C9499010C94990130
:100010000C9499010C9499010C9499010C949901F8
:100020000C9499010C9499010C941B0D0C94E70B02
:100030000C9499010C9499010C9499010C949901D8
:100040000C9499010C9499010C9499010C949901C8
:100050000C9499010C9499010C9499010C9420082A
:100060000C9499010C9499010C9499010C949901A8
:100070000C9499010C9499010C9499010C94990198
:100080000C9499010C9499010C9499010C94990188
:100090000C94F3060C9499010C9499010C94990119
:1000A0000C9499010C9499010C9499014002450219
:1000B0004A024F0254025B02620269027002540952
:1000C000570946094A0950097809780978095B09EE
:1000D0005F09630969096D09780973090706050451
:1000E0000100080A0B0C0D090000000200090F00B6
:1000F00000030401000C00000000000000000000EC
:1001000000000000000004080201104080401020A0
:1001100040804080080204018040201002011080CD
:1001200010204040040404040403040502020202F7
:100130000403020202020606060606060404020280
:10014000020400000000250028002B002E003100D2
:1001500000C18081C112010002020000404123362B
:100160008000010102000112010002000000404174
:1001700023368000010102000141726475696E6FCF
:10018000204C4C430041726475696E6F204C656F62
:100190006E6172646F0004030904080B000202021E
:1001A0000100090400000102020000052400100102
:1001B00005240101010424020605240600010705A7
:1001C000810310004009040100020A000000070535
:1001D000020240000007058302400000000000000A
:1001E000000000002A2B2800000000000000000092
:1001F0000000000000000000000000002C9EB4A0E1
:10020000A1A2A434A6A7A5AE362D3738271E1F20DD
:10021000212223242526B333B62EB7B89F848586A2
:100220008788898A8B8C8D8E8F90919293949596E6
:100230009798999A9B9C9D2F3130A3AD3504050664
:100240000708090A0B0C0D0E0F10111213141516C6
:100250001718191A1B1C1DAFB1B0B5000904020014
:1002600001030000000921010100012265000705CA
:10027000840340000105010902A1010901A10085D3
:10028000010509190129031500250195037501814F
:1002900002950175058103050109300931093815F9
:1002A00081257F750895038106C0C005010906A157
:1002B000018502050719E029E7150025017501955B
:1002C00008810295017508810395067508150025BA
:1002D000650507190029658100C098059A06950EE5
:1002E000E80F11241FBECFEFDAE0DEBFCDBF11E073
:1002F000A0E0B1E0E8EDF1E202C005900D92A23A73
:10030000B107D9F724E0A2EAB1E001C01D92AB3EEB
:10031000B207E1F712E0C2EED2E004C02297FE017C
:100320000E944C10CA3DD107C9F70E94B0090C9435
:10033000EA100C940000DC01ED91FC910190F08139
:10034000E02D099481E008950895249A20E1FC01AC
:10035000228325E230E03483238308952F923F9255
:100360004F925F926F927F928F929F92AF92BF92C5
:10037000CF92DF92EF92FF920F931F93CF93DF9371
:1003800000D000D0CDB7DEB780901E0190901F0145
:10039000E0900401F0900501C0901A01D0901B017B
:1003A00029ED32E03C832B83ABEDB2E08AEB92E0A7
:1003B0009A83898380E090E02AEB222E21E0322E7E
:1003C0003EEB432E31E0532E42EC642E41E0742E7E
:1003D00056ECA52E51E0B52E41E050E066E571E007
:1003E00004E511E0E981FA81128A118A9D01215008
:1003F0003109F90110828430910564F5009741F0CC
:10040000E981FA81208131812B5E3F4F328B218B34
:10041000E981FA8121893289243131051CF0F1E02A
:10042000FC9301C01C92E981FA81568B458B748B39
:10043000638B108F078B528F418F2CE030E0348F0D
:10044000238F2CE331E0368F258F21E0EB81FC8177
:1004500020835EC0E981FA81968A858A9C012550B5
:1004600031092930310528F42A5A3F4FF9010C94FB
:100470004A102AEC31E0309312032093110336C066
:10048000B0922303A092220331C070923403609291
:1004900033032CC0509245034092440327C030924E
:1004A00056032092550322C0E6EBF1E0F093670378
:1004B000E09366031BC022EB31E030937803209376
:1004C000770314C0EEEAF1E0F0938903E093880328
:1004D0000DC02AEA31E030939A032093990306C0B5
:1004E000E6EAF1E0F093AB03E093AA032CE131E0FC
:1004F000E981FA81308F278BF28EE18ED48EC38E04
:1005000026E031E0368F258FEB81FC8110821C9232
:1005100001962B813C812F5E3F4F3C832B8351966C
:10052000E981FA817196FA83E9838E30910509F0A9
:1005300059CF0F900F900F900F90DF91CF911F9197
:100540000F91FF90EF90DF90CF90BF90AF909F9072
:100550008F907F906F905F904F903F902F90089575
:1005600080E00E940B09BC01882777FD8095982FB9
:100570000E948F0D2AE030E040E050E060E070E043
:10058000CB010E94BB0D44E6469F9001479F300D72
:100590001124B901882777FD8095982F0C948D0838
:1005A000E091D001F091D1010190F081E02D80ED3A
:1005B00091E009950E94AE0160E070E089EB93E064
:1005C0000E9493066FE975E089EB93E00E9495061F
:1005D0000C94B002CF93DF93EDE1F3E084E090E080
:1005E000208121111AC021E1289FF001299FF00DDF
:1005F0001124E553FD4F21E0268780912001909141
:100600002101A0912201B0912301C281D38188836D
:100610009983AA83BB83278705C0019671968E3084
:100620009105F1F6DF91CF91089546EF50E062E039
:1006300070E085ED91E00C94DB10E091D001F09139
:10064000D1010480F581E02D42E550E065ED71E0D7
:1006500080ED91E009940E9415030C941D030F9303
:100660001F93462F082F672F702F842F1F910F91F4
:1006700008952F923F924F925F926F927F928F9246
:100680009F92AF92BF92CF92DF92EF92FF920F9321
:100690001F93CF93DF93CDB7DEB766970FB6F8946D
:1006A000DEBF0FBECDBF988B8F870E942B0329ED35
:1006B00032E03A832983AAEDCA2EA2E0DA2EBBEDFE
:1006C000EB2EB2E0FB2E4AEC52E05E8B4D8B00E04D
:1006D00010E0A981BA818C91882309F44CC1ED897D
:1006E000FE89258136814901F1E08F1A9108C80100
:1006F00001968430910511F480E090E0A901440F47
:10070000551F5A874987212C312C2D893E8922502B
:1007100031093A8B298B61E1689FA001699F500DD7
:10072000112445525D4F5E834D8329853A852250C1
:1007300031093C8B2B8B97FCD1C0D6018C9188233F
:10074000B1F0043011051CF4ED81FE810AC00430C3
:10075000110559F0A989BA898C91882331F0ED8966
:10076000FE898081882309F4B9C0D6011C9289854D
:100770009A85820D931D82509048880F991FAD89EC
:10078000BE891396ED91FC911497E80FF91F6081D3
:100790007181828193810E942F03ED89FE890780F8
:1007A000F085E02D2B893C89220D331DE20FF31FCC
:1007B000FC83EB83272F30E038872F83462F50E0D0
:1007C0005C874B87E82FF0E0FE87ED87E091CE0154
:1007D000F091CF012091A2013091A301412C512C25
:1007E000AB81BC818D919C91481659060CF067C075
:1007F000AD89BE8911968D919C9112978E0F9F1F86
:100800001B964D915C911C97841B950B019682352C
:10081000910508F04BC0A901440F551F1D96AD90DE
:10082000BC901E97A40EB51E3C01660C771C680E8A
:10083000791EA3014B525E4F3A01D5014D915C9157
:100840006F817885649FC001659F900D749F900DA6
:10085000112464E670E00E94F50FD30111966C93A9
:10086000D5014D915C916B857C85649FC001659F2E
:10087000900D749F900D112464E670E00E94F50FB6
:10088000D3016C93D5014D915C916D857E85649FFC
:10089000C001659F900D749F900D112464E670E077
:1008A0000E94F50FD30112966C9302C097FF03C00C
:1008B0002F5F3F4F3196BFEF4B1A5B0A91CFF093FA
:1008C000CF01E093CE013093A3012093A201B1E0C8
:1008D0008B1A9108E2E02E1A31082DCF1092CF0129
:1008E0001092CE01D6018C9181110AC0ED89FE894A
:1008F0008181928121853285820F931F928381832A
:10090000D7018C91811119C0ED89FE898181928175
:10091000043011052CF4449784F0F1E0FC930DC0F1
:10092000AD89BE8919962D913C911A97821B930B24
:100930000A971CF021E0F7012083AD89BE8911964A
:100940008D919C9112971B962D913C911C97821B27
:10095000930B823591057CF012961C921E92119792
:10096000043011050CF446C0E981FA811082D601E9
:100970001C92F70110821092A3011092A2010F5F46
:100980001F4F29813A812F5E3F4F3A83298331E1FE
:10099000C30ED11C41E1E40EF11C2D893E892F5E6E
:1009A0003F4F3E8B2D8B0E30110509F092CE0E94E9
:1009B0001D034F855889BA01882777FD8095982FA8
:1009C00066960FB6F894DEBF0FBECDBFDF91CF9114
:1009D0001F910F91FF90EF90DF90CF90BF90AF905D
:1009E0009F908F907F906F905F904F903F902F904F
:1009F0000C948D08E1E0D601EC93D7011C92BBCF9B
:100A000082E390E00C9439030F93001401E00A95FF
:100A1000F1F70F9108950F93001402E00A95F1F792
:100A20000F910895DF92EF92FF920F931F93CF9350
:100A3000DF93F894DC011296FC9012971396ED91D7
:100A4000FC911497EA01CC0FDD1FC40FD51FC60F10
:100A5000D71FE080EF288081F094F822F0828B018C
:100A6000C017D10708F45BC0F801D1908F01E5B839
:100A7000001400140014D7FEF5B80E940405F5B860
:100A80000E940B05E5B8001400140014D6FEF5B85A
:100A90000E940405F5B80E940B05E5B80014001487
:100AA0000014D5FEF5B80E940405F5B80E940B05A8
:100AB000E5B8001400140014D4FEF5B80E94040533
:100AC000F5B80E940B05E5B8001400140014D3FE1D
:100AD000F5B80E940405F5B80E940B05E5B80014AE
:100AE00000140014D2FEF5B80E940405F5B80E9467
:100AF0000B05E5B8001400140014D1FEF5B80E94EF
:100B00000405F5B80E940B05E5B8001400140014A4
:100B1000D0FEF5B80E940405F5B80014A1CF789472
:100B2000DF91CF911F910F91FF90EF90DF9008958B
:100B300089E691E09093D1018093D001089589EBEB
:100B400093E00E94B005892B49F089EB93E00E9465
:100B5000B8059093A5018093A401F1CF0C94EA020B
:100B60008091EC0390E02091ED03821B91090895A0
:100B70002091ED038091EC03281750F4E22FF0E070
:100B8000E251FC4F808190E02F5F2093ED030895A8
:100B90008FEF9FEF0895E091ED038091EC03E8174C
:100BA00030F4F0E0E251FC4F808190E008958FEF47
:100BB0009FEF08950895E091C503F091C603309723
:100BC000E1F03091ED032091EC033217B0F040E0FA
:100BD000242F30E02617370754F4DC01A20FB31F8F
:100BE0005C91D901A251BC4F5C934F5FF1CF109241
:100BF000ED036093EC03CB0109940895E091C703E2
:100C0000F091C803309729F01092CB031092CA03D9
:100C100009940895CF92DF92EF92FF920F931F9362
:100C2000CF93DF937C01CB018A012091C90322235A
:100C300089F0EB016B01C40ED51ECC15DD0569F002
:100C40006991D701ED91FC910190F081E02DC701F0
:100C50000995F3CF642F0E94C006C801DF91CF91A0
:100C60001F910F91FF90EF90DF90CF900895CF9359
:100C7000DF931F92CDB7DEB769832091C90322238A
:100C8000D1F02091CA03203240F021E030E0FC0195
:100C90003383228380E090E015C08091CB03E82F5E
:100CA000F0E0E453FC4F998190838F5F8093CB03F6
:100CB0008093CA0305C061E0CE0101960E94C00680
:100CC00081E090E00F90DF91CF910895FC011382B5
:100CD000128248EE53E060E070E0448355836683FF
:100CE000778387E791E09183808308951092ED03E5
:100CF0001092EC031092CB031092CA030C949E0640
:100D0000CF93DF93EC01862F0E94BC068EEF95E017
:100D10000E94DE068BED95E00E94D906CE01DF91A0
:100D2000CF910C9476060C9480067093C603609362
:100D3000C503089589EB93E00C94660610927B043A
:100D400081E0809379041092780461E082E00E944F
:100D5000790961E083E00E947909E9EBF0E08081A4
:100D60008E7F808380818D7F808388E48093B8002C
:100D700085E48093BC000895880F8093BA0008959D
:100D8000613298F420917B04243089F4609330041C
:100D9000FC0182E394E0DC012A2F281B261718F4BB
:100DA00021912D93F9CF80E0089581E0089582E0AC
:100DB0000895909375048093740408959093770434
:100DC00080937604089585ED8093BC008091BC00EB
:100DD00084FDFCCF10927B04089585EC8093BC00C9
:100DE00010927B0408951F920F920FB60F92112458
:100DF0002F933F934F935F936F937F938F939F9323
:100E0000AF93BF93EF93FF938091B900887F8036B3
:100E100009F49CC068F5883209F45BC090F4803115
:100E200009F454C038F4882309F4F5C0883009F473
:100E30004DC0F5C0883109F44CC0803209F45DC062
:100E4000EEC0803409F468C048F4803309F455C01A
:100E5000883309F0E4C080930E04A8C0803509F4FB
:100E60004FC0883509F45DC0883409F0D8C0D5C0BA
:100E7000883909F4C6C0A8F4883709F467C038F483
:100E8000883609F463C0803709F460C0C8C0883868
:100E900009F4B7C0803909F45FC0803809F0BFC0D9
:100EA0005BC0803B09F485C038F4803A09F466C021
:100EB000883A09F47EC0B3C0803C09F4A6C0883CDF
:100EC00009F4A3C0883B09F489C0A9C080917A04C1
:100ED00010C09091530480915204981770F5E091DE
:100EE000530481E08E0F80935304F0E0EC5AFB4FE3
:100EF00080818093BB0085EC85C080930E048DC0FB
:100F0000E091530481E08E0F809353048091BB00E5
:100F1000F0E0EC5AFB4F808390915304809152048F
:100F20006DC0E091530481E08E0F80935304809153
:100F3000BB00F0E0EC5AFB4F808380917904811173
:100F40006CC081E08093780484EA60C083E0809381
:100F50007B0410920F04CFCF80910F04803208F0F1
:100F600050C0E0910F0481E08E0F80930F048091B8
:100F7000BB00F0E0E05FFB4F8083BDCF80910F04AA
:100F8000803230F4E0910F04F0E0E05FFB4F10821C
:100F90000E94E30660910F0470E0E0917404F09108
:100FA000750480E194E0099510920F040E94ED060B
:100FB00036C084E080937B04109231041092300498
:100FC000E0917604F09177040995809130048111C5
:100FD00005C081E08093300410923204E091310426
:100FE00081E08E0F80933104F0E0EE5CFB4F808156
:100FF0008093BB009091310480913004981708F4DD
:101000007ACF85E88093BC000AC085EC8093BC0051
:1010100010927B0404C010920E040E94E306FF911C
:10102000EF91BF91AF919F918F917F916F915F9160
:101030004F913F912F910F900FBE0F901F901895D9
:101040001F920F920FB60F9211242F933F938F93FD
:101050009F93AF93BF9380917D0490917E04A09164
:101060007F04B091800430917C0423E0230F2D375E
:1010700020F40196A11DB11D05C026E8230F02969C
:10108000A11DB11D20937C0480937D0490937E0468
:10109000A0937F04B0938004809181049091820496
:1010A000A0918304B09184040196A11DB11D809389
:1010B000810490938204A0938304B0938404BF912D
:1010C000AF919F918F913F912F910F900FBE0F90F5
:1010D0001F9018953FB7F8948091810490918204F5
:1010E000A0918304B091840426B5A89B05C02F3F2E
:1010F00019F00196A11DB11D3FBF6627782F892FDA
:101100009A2F620F711D811D911D42E0660F771F9E
:10111000881F991F4A95D1F70895CF92DF92EF92D9
:10112000FF92CF93DF936B017C010E946A08EB0171
:10113000C114D104E104F10489F00E94D70D0E948A
:101140006A086C1B7D0B683E734090F381E0C81AFF
:10115000D108E108F108C851DC4FEACFDF91CF9107
:10116000FF90EF90DF90CF900895789484B58260DF
:1011700084BD84B5816084BD85B5826085BD85B53B
:10118000816085BDEEE6F0E0808181608083E1E8EA
:10119000F0E0108280818260808380818160808322
:1011A000E0E8F0E0808181608083E1E9F0E0808127
:1011B00082608083808181608083E0E9F0E08081CB
:1011C00081608083E1ECF0E08081846080838081B5
:1011D00082608083808181608083E3ECF0E08081A5
:1011E00081608083E0ECF0E0808182608083E2ECCB
:1011F000F0E0808181608083EAE7F0E080818460B4
:10120000808380818260808380818160808380810F
:10121000806880830895823108F08251E82FF0E0E1
:10122000E452FF4FE49180917B00E3FB222720F9F9
:1012300030E095E0220F331F9A95E1F78F7D822BE6
:1012400080937B00E77080915A0120E4829FC00167
:101250001124E82BE0937C0080917A0080648093D5
:101260007A0080917A0086FDFCCF809178002091F1
:10127000790090E0922B089590E0FC013197EF30D7
:10128000F105B0F5E15AFF4F0C944A1080918000AF
:101290008F7703C0809180008F7D809380000895B8
:1012A00080918000877FF9CF84B58F7702C084B5A5
:1012B0008F7D84BD0895809190008F7707C08091C5
:1012C00090008F7D03C080919000877F8093900075
:1012D00008958091C0008F7703C08091C0008F7DFA
:1012E0008093C00008958091C200877F8093C200E0
:1012F00008950F931F93CF93DF931F92CDB7DEB75F
:10130000282F30E0F901E851FF4F8491F901EA5F9D
:10131000FE4F1491F901EC5DFE4F04910023C9F0DA
:10132000882321F069830E943C096981E02FF0E065
:10133000EE0FFF1FEE5BFE4FA591B4919FB7F8949F
:101340008C91611103C01095812301C0812B8C9376
:101350009FBF0F90DF91CF911F910F910895089536
:101360000E94B5080E94AF0985E894E00E94710DC3
:101370000E94D002C0E0D0E00E9400052097E1F377
:101380000E940000F9CFCF92DF92EF92FF920F936D
:101390001F93CF93DF936C017A01EB01E60EF71EEA
:1013A00000E010E0CE15DF0561F06991D601ED9106
:1013B000FC910190F081E02DC6010995080F191FDD
:1013C000F1CFC801DF91CF911F910F91FF90EF9066
:1013D000DF90CF9008954091890450918A04209124
:1013E00087043091880442175307B4F49091E800C1
:1013F0009570E1F39091E80092FD19C08093F1009F
:101400008091890490918A0401968F739927892B82
:1014100019F48EEF8093E8008091890490918A04FA
:10142000019690938A048093890481E0089580E076
:101430000895CF92DF92FF920F931F93CF93DF9384
:101440001F92CDB7DEB7082F162F862F880F8E5F1D
:1014500099830E94EB0983E00E94EB09F02EC02ED5
:101460009981D92E8C2D8F19811778F4F6018491EA
:101470000E94EB09082F80E00E94EB098023FFEF18
:10148000CF1ADF0A8111EECF01C081E00F90DF910A
:10149000CF911F910F91FF90DF90CF9008956150F1
:1014A00030F02091F100FC0120830196F8CF2898BC
:1014B00084E680938C0408952FB7FC012083F89470
:1014C00067706093E9000895CF93DF931F92CDB7C3
:1014D000DEB7682FCE0101960E945C0A8091F2006F
:1014E00099819FBF0F90DF91CF910895FF920F9345
:1014F0001F93CF93DF9300D0CDB7DEB7F62E8A01CE
:1015000090918B04992311F057FF03C08FEF9FEF49
:101510002BC0682FCE0101967A830E945C0A8091CD
:10152000F20090E0A8017A81801791070CF4AC01D9
:10153000EF2DF72FF40E84E6FE1639F028988093ED
:101540008C049091F1009193F7CF4115510521F052
:101550008091F200882321F089818FBFCA0104C0E5
:101560008BE68093E800F8CF0F900F90DF91CF913A
:101570001F910F91FF900895CF93DF931F92CDB7E6
:10158000DEB741E050E0BE016F5F7F4F0E94760AF8
:10159000019719F4898190E002C08FEF9FEF0F90BF
:1015A000DF91CF910895CF93DF931F92CDB7DEB730
:1015B000682FCE0101960E945C0A9091E800892F65
:1015C000807295FF04C09091F20080E4891B99819C
:1015D0009FBF0F90DF91CF9108956F927F928F926E
:1015E0009F92AF92BF92CF92DF92EF92FF920F93B2
:1015F0001F93CF93DF931F92CDB7DEB7782E7B0179
:10160000C42EB52E80918B04882369F0042F152FEA
:101610008AEFD82E872D8072982E9AE3A92E872DD7
:101620008074882E11C08FEF9FEF57C0872D0E94C6
:10163000D30A682E81110CC0DA94A9F361E070E03E
:1016400080E090E00E948D080115110579F73BC0FC
:10165000282F30E0021713070CF4602E672DCE01FF
:1016600001960E945C0A8091E80085FF29C0262D22
:1016700030E0021B130B992039F06A948FEF681643
:10168000B1F01092F100F9CFF701862D77FE07C077
:10169000815058F094919093F1003196F9CF815098
:1016A00020F091919093F100FACFE20EF31E809119
:1016B000E80085FF0FC00115110511F481100AC063
:1016C00089818FBFC1CF5D9884E680938D048C2D76
:1016D0009B2D03C0A092E800F3CF0F90DF91CF9134
:1016E0001F910F91FF90EF90DF90CF90BF90AF9040
:1016F0009F908F907F906F9008951092E9001092C4
:101700008A04109289049093880480938704089532
:10171000CF92DF92FF920F931F93CF93DF9300D06E
:10172000CDB7DEB7F82E8A016B0101151105B1F0B6
:10173000F601F7FE02C0849101C0808149835A837B
:101740000E94EB0901501109FFEFCF1ADF0A49810E
:101750005A818111EACF8FEF9FEF01C0CA010F902C
:101760000F90DF91CF911F910F91FF90DF90CF905D
:1017700008951F93CF93DF931F92CDB7DEB7162F37
:101780002091E80022FFFCCF612F79830E944F0A4D
:101790008BEF8093E800812F7981972F0F90DF9155
:1017A000CF911F910895CF93DF931F92CDB7DEB7EE
:1017B0001982CE0101960E94350ECE0101960E943B
:1017C000D00E898190E00F90DF91CF9108951F9204
:1017D0000F920FB60F921124EF92FF920F931F9367
:1017E0002F933F934F935F936F937F938F939F9329
:1017F000AF93BF93EF93FF93CF93DF93CDB7DEB754
:101800006297DEBFCDBF1092E9008091E80083FFB0
:10181000EBC068E0CE010A960E944F0A82EF8093E7
:10182000E8009A8597FF05C08091E80080FFFCCF13
:1018300003C08EEF8093E800892F807609F0B9C04D
:101840008B85811105C01092F1001092F100C5C086
:10185000282F2D7F213009F4C0C0853049F48091B4
:10186000E80080FFFCCF8C8580688093E300B5C0E2
:10187000863009F076C02D85E888F988223071F528
:1018800080E090E02A8B0E947D0B0E94D30B99E0B0
:101890008E010F5F1F4FF801392F11923A95E9F72A
:1018A00099832A892A8391E09E8390E898879AEF0A
:1018B00099872091890430918A04275F3F4F3C83A8
:1018C0002B838D83C7010E947D0B49E050E0B80156
:1018D00080E00E94880B0E94D30B7FC0C7012A8B37
:1018E0000E947D0B2A89223241F482E290E00E941C
:1018F000DB0E892B09F071C074C0213069F488892E
:101900009989089711F420938604809186048111A7
:1019100018C067E671E01AC0233009F062C08C85F8
:10192000882391F0823021F460E185E891E006C0DF
:10193000813009F056C06BE089E791E00E94190AF6
:101940004AC065E571E002C066E971E061157105A4
:1019500009F447C0FB01449150E080E80E94880BE5
:101960003CC0873009F43DC0883021F481E0809389
:10197000F10033C0893089F5937099F5E1E5F1E024
:1019800081E021E096E38093E9002093EB0034911D
:101990003093EC009093ED008F5F3196853099F78E
:1019A0008EE78093EA001092EA008C8580938B0486
:1019B00014C0888999890E947D0B8E85811105C08C
:1019C000CE010A960E94400E06C0823051F4CE012C
:1019D0000A960E94030F882321F08EEF8093E8007F
:1019E00003C081E28093EB0062960FB6F894DEBFED
:1019F0000FBECDBFDF91CF91FF91EF91BF91AF911E
:101A00009F918F917F916F915F914F913F912F9116
:101A10001F910F91FF90EF900F900FBE0F901F90AE
:101A200018958093E9008091F200882319F08AE3E9
:101A30008093E80008951F920F920FB60F92112421
:101A40002F933F934F935F936F937F938F939F93C6
:101A5000AF93BF93EF93FF938091E1001092E10069
:101A600083FF0FC01092E90091E09093EB00109279
:101A7000EC0092E39093ED0010928B0498E0909329
:101A8000F00082FF1DC083E00E94110D80918D0443
:101A9000882339F080918D04815080938D048823B0
:101AA00069F080918C04882359F080918C048150D6
:101AB00080938C04811104C0289A02C05D9AF1CFF2
:101AC000FF91EF91BF91AF919F918F917F916F9116
:101AD0005F914F913F912F910F900FBE0F901F90EC
:101AE000189510928B0481E08093D70080EA809350
:101AF000D80082E189BD09B400FEFDCF61E070E04D
:101B000080E090E00E948D0880E98093D8008CE00E
:101B10008093E2001092E000559A209A0895611592
:101B200071058105910511F00C94D2100895CF93A1
:101B3000DF9300D000D0CDB7DEB79B01AC016115BB
:101B400071058105910569F069833A834B835C8354
:101B50000E94CD1029813A814B815C810E942B101B
:101B600003C060E070E0CB010F900F900F900F90DA
:101B7000DF91CF910895CF92DF92EF92FF926B01A8
:101B80007C01621773078407950764F4CA01B901E1
:101B90006C197D098E099F090E94970D6C0D7D1DA2
:101BA0008E1D9F1DFF90EF90DF90CF9008950895B8
:101BB000CF93DF931F92CDB7DEB76983DC01ED9140
:101BC000FC910280F381E02D41E050E0BE016F5FA7
:101BD0007F4F09950F90DF91CF910895CF93DF93B9
:101BE000EC018C859D8597FF05C082E00E94BC0AB0
:101BF0009D878C878C859D85DF91CF91089583E0AB
:101C00000C94110DFC018485958597FD06C082E03A
:101C10000E94640A90E00196089582E00E94640A9E
:101C200090E00895FC018485958597FD05C02FEF10
:101C30003FEF35872487089582E00C94BC0ACF9348
:101C4000DF93EC0180916201882331F083E00E94F0
:101C5000ED0A1816190634F081E090E09B838A8320
:101C600080E090E0DF91CF910895FC0120812E5F0C
:101C7000208342E450E06AE971E080E80C94880B2C
:101C8000FC0181819081913A59F4813209F03CC084
:101C900047E050E06BE571E080E00E94880B43C0B4
:101CA000913291F5803239F467E070E08BE591E094
:101CB0000E94B90B06C0823209F035C08281809340
:101CC000620180915B0190915C01A0915D01B091F6
:101CD0005E01803B9440A105B105C1F48091620191
:101CE00080FD14C087E797E7909301088093000870
:101CF0002BE088E190E00FB6F894A89580936000FF
:101D00000FBE209360000FC080E0089588E10FB6F9
:101D1000F89480936000109260000FBEA895109216
:101D200001081092000881E0089510929104109229
:101D3000900488EE93E0A0E0B0E08093920490934A
:101D40009304A0939404B093950487E891E0909352
:101D50008F0480938E048FEF9FEF90939B0480936A
:101D60009A040895FF920F931F93CF93DF93EC0192
:101D7000F62EE881F9810480F581E02D09958C012A
:101D8000E881F9810680F781E02D6F2DCE0109955C
:101D9000C8019927DF91CF911F910F91FF9008956E
:101DA000FC0120812F5F208349E150E06CE572E067
:101DB00080E80C94880B45E650E065E772E080E827
:101DC0000C94880BEF92FF920F931F93CF93DF93A6
:101DD0001F92CDB7DEB789838B017A0141E050E0D5
:101DE000BE016F5F7F4F84E00E94ED0AA701B8013A
:101DF00084E40E94ED0A0F90DF91CF911F910F9123
:101E0000FF90EF900895FC0191818081813A31F437
:101E100081E0913091F0933089F411C0813271F4F6
:101E20009B3021F482818093640105C09A3031F4A3
:101E300082818093630181E00895089580E0089590
:101E400048E050E082E00C94E20ECF93DF93DC0197
:101E5000683818F0E8E7E60F25C0E62FF0E067FFE6
:101E600011C0E058F10981E090E001C0880FEA95C7
:101E7000EAF714969C911497982B14969C931497B8
:101E8000E0E010C0E452FE4FE491EE2309F440C0BC
:101E9000E7FF08C014968C911497826014968C9377
:101EA0001497EF7716968C9116978E1741F1179627
:101EB0008C9117978E1719F118968C9118978E1789
:101EC000F1F019968C9119978E17C9F01A968C918A
:101ED0001A978E17A1F01B968C911B978E1779F08D
:101EE00080E090E0ED01C80FD91F2E81211102C0C2
:101EF000EE8305C0019686309105A1F709C0BD01AA
:101F00006C5F7F4FCD010E94200F81E090E008C000
:101F100081E090E013969C938E93129780E090E07E
:101F2000DF91CF910895683818F0E8E7E60F25C0F3
:101F3000E62FF0E067FF12C0E058F10921E030E041
:101F400001C0220FEA95EAF72095DC0114963C9136
:101F50001497322314963C93E0E00FC0E452FE4FF6
:101F6000E491EE2329F1E7FF08C0DC0114962C91DF
:101F700014972D7F14962C93EF7720E030E0EE231A
:101F800051F0DC01A20FB31F16964C9116974E1319
:101F900002C016961C922F5F3F4F2630310579F70D
:101FA000BC016C5F7F4F0E94200F81E090E008959C
:101FB00080E090E00895FC01168217821086118659
:101FC000128613861482BC016C5F7F4F0C94200F25
:101FD0001092EA041092E1041092E00487E991E083
:101FE0009093DF048093DE04089597FB072E16F488
:101FF000009407D077FD09D00E945B1007FC05D044
:102000003EF4909581959F4F0895709561957F4F0F
:102010000895A1E21A2EAA1BBB1BFD010DC0AA1F29
:10202000BB1FEE1FFF1FA217B307E407F50720F041
:10203000A21BB30BE40BF50B661F771F881F991FBC
:102040001A9469F760957095809590959B01AC0105
:10205000BD01CF010895052E97FB1EF400940E9448
:10206000421057FD07D00E94091007FC03D04EF420
:102070000C94421050954095309521953F4F4F4F0D
:102080005F4F089590958095709561957F4F8F4F24
:102090009F4F0895EE0FFF1F0590F491E02D0994D6
:1020A0000E946F10A59F900DB49F900DA49F800D6E
:1020B000911D11240895AA1BBB1B51E107C0AA1F43
:1020C000BB1FA617B70710F0A61BB70B881F991FD9
:1020D0005A95A9F780959095BC01CD010895A29FCE
:1020E000B001B39FC001A39F700D811D1124911DEC
:1020F000B29F700D811D1124911D08958F929F92A2
:10210000AF92BF92CF92DF92EF92FF92CF93DF9385
:10211000EC01688179818A819B8161157105810556
:10212000910521F464E279ED8BE597E02DE133EF41
:1021300041E050E00E942B1049015A019B01AC0183
:10214000A7EAB1E40E9450106B017C01ACEEB4EF41
:10215000A50194010E94E510C60ED71EE81EF91EC7
:10216000F7FE06C081E0C81AD108E10880E8F80A45
:10217000C882D982EA82FB82C701B6019F77DF91CC
:10218000CF91FF90EF90DF90CF90BF90AF909F9056
:102190008F9008950E947E10089580E091E00E9443
:1021A0007E100895609300017093010180930201F5
:1021B000909303010895DC0101C06D93415050409C
:1021C000E0F70895B7FF0C9450100E945010821B46
:0821D000930B0895F894FFCF72
:1021D80001000000030064006400640064006400FF
:1021E800640064006400640064000A000A000100DE
:1021F8000000FF00007FFF0000FFFF0000FF00005D
:10220800FF00000082004B00D3009400020004008D
:10221800060008000A000C000C000A00080006006E
:10222800040002000C00FFFFFF000100E1000000B5
:10223800000000010100000000A5019B011205A299
:1022480001A4010000000037060A06B005B805CB56
:1022580005DA0500000000D80D1F0E020E120EEE62
:102268000DFF0D00000000B20EC309250F930FDB10
:022278000F0055
:00000001FF
