:100000007CC00000A9C00000A7C00000A5C000007F
:10001000A3C00000A1C000009FC000009DC0000060
:100020009BC0000099C0000097C0000095C0000070
:1000300093C0000091C000008FC000008DC0000080
:100040008BC0000089C0000087C0000085C0000090
:1000500083C0000081C000007FC0000054C40000C5
:100060007BC00000D8C600000CC7000075C00000AF
:1000700073C0000071C000006FC000006DC00000C0
:100080006BC0000069C0000067C0000065C00000D0
:1000900063C0000061C000005FC000005DC00000E0
:1000A0005BC0000059C0000057C0000055C00000F0
:1000B00053C0000051C000004FC000004DC0000000
:1000C0004BC0000049C0000047C0000045C0000010
:1000D00043C0000041C000003FC000003DC0000020
:1000E0003BC0000055015A015F01640169017001C4
:1000F00077017E0185016F04730711241FBECFEFC6
:10010000D1E2DEBFCDBF00E00CBF12E0A0E0B2E064
:10011000E6E3F2E100E00BBF02C007900D92AE37BC
:10012000B107D9F724E0AEE7B2E001C01D92AD3FC0
:10013000B207E1F710E0CAEFD0E000E005C0229777
:100140000109FE010BBFEBD7C63FD10780E00807CE
:10015000B1F70DD70C94190953CFDC01ED91FC9147
:100160000190F081E02D199481E008950895E1E077
:10017000F1E020812064208320E4FC01228322E03E
:1001800031E03483238308952F923F924F925F9200
:100190006F927F928F929F92AF92BF92CF92DF9297
:1001A000EF92FF920F931F93CF93DF9300D01F9294
:1001B000CDB7DEB78090160290901702E09004024F
:1001C000F0900502C0901202D090130227E733E0AE
:1001D0003C832B83A9E7B3E088E593E09A83898386
:1001E00080E090E024E9222E22E0322E38E9432EEE
:1001F00032E0532E4CE9642E42E0742E50EAA52ED4
:1002000052E0B52E41E050E06AE572E008E512E008
:10021000E981FA81128A118A9D0121503109F9017F
:1002200010828430910564F5009741F0E981FA81EC
:10023000208131812B5E3F4F328B218BE981FA8106
:1002400021893289243131051CF0F1E0FC9301C091
:100250001C92E981FA81568B458B748B638B108FCE
:10026000078B528F418F2CE030E0348F238F20E4B6
:1002700032E0368F258F21E0EB81FC8120835DC049
:10028000E981FA81968A858A9C01255031092930B5
:10029000310520F42E583F4FF90131C724EA32E0EE
:1002A0003093B0032093AF0336C0B092C103A09245
:1002B000C00331C07092D2036092D1032CC050921F
:1002C000E3034092E20327C03092F4032092F30349
:1002D00022C0E0E9F2E0F0930504E09304041BC0BF
:1002E0002CE832E0309316042093150414C0E8E89B
:1002F000F2E0F0932704E09326040DC024E832E0F6
:10030000309338042093370406C0E0E8F2E0F0931D
:100310004904E093480424E132E0E981FA81308F16
:10032000278BF28EE18ED48EC38E26E032E0368F9C
:10033000258FEB81FC8110821C9201962B813C81E0
:100340002F5E3F4F3C832B835196E981FA81719652
:10035000FA83E9838E30910509F05ACF0F900F9000
:100360000F900F90DF91CF911F910F91FF90EF9021
:10037000DF90CF90BF90AF909F908F907F906F90C5
:100380005F904F903F902F900895E091AA02F091D6
:10039000AB020190F081E02D8AEA92E0199526E007
:1003A00040E855E260E070E080E694E0D4D4ECCE22
:1003B0001F93CF93DF9380E09AD3BC01882777FD0A
:1003C0008095982F06D6EBEBF3E084E090E0208157
:1003D000211125C021E1289FE001299FD00D112482
:1003E000C759DC4F11E01E872AE030E040E050E0C2
:1003F00060E070E0CB0116D6FB01EE0FFF1FEE0FA1
:10040000FF1FE85EFD4F80819181A281B381EA8167
:10041000FB8180839183A283B3831F8705C00196EC
:1004200071968E30910599F6DF91CF911F910895C5
:100430004AEB50E063E070E08FEA92E0EDC6E091B5
:10044000AA02F091AB020480F581E02D4EE350E06A
:100450006FEA72E08AEA92E01994EADFF0CF0F9334
:100460001F93462F082F672F702F842F1F910F91F6
:1004700008952F923F924F925F926F927F928F9248
:100480009F92AF92BF92CF92DF92EF92FF920F9323
:100490001F93CF93DF93CDB7DEB764970FB6F89471
:1004A000DEBF0FBECDBF988B8F87D7DF27E733E046
:1004B0003A83298349E653E05C8B4B8B08E713E0D2
:1004C00039E7E32E33E0F32EC12CD12CA981BA8178
:1004D0008C91882309F422C1EB89FC892481358120
:1004E0003901F1E06F1A7108C60101968430910557
:1004F00011F480E090E0A901440F551F5A87498705
:10050000412C512C41E1489F9001499F300D11240D
:1005100027583C4F3E832D8329853A852250310947
:100520003A8B298B77FCC1C034E0C316D1045CF44C
:10053000D8018C91882339F0ED81FE818081882358
:1005400009F4B3C01C9289859A85840D951D82504B
:100550009048880F991FAB89BC891296ED91FC9148
:100560001397E80FF91F608171818281938177DF92
:10057000EB89FC890680F781E02D29893A89240DD1
:10058000351DE20FF31FFC83EB83272F30E0388704
:100590002F83462F50E05C874B87E82FF0E0FE87E3
:1005A000ED87A090A802B090A90220917E02309120
:1005B0007F02212C312CEB81FC81808191812816D6
:1005C00039060CF063C0AB89BC898D919C91119761
:1005D0008A0D9B1D1A964D915C911B97841B950B60
:1005E00001968E33910508F046C0A901440F551FAE
:1005F0001C968D909C901D97840E951EFC01EE0F0D
:10060000FF1FE80FF91FE155FD4FD4014D915C919B
:100610006F817885649FC001659F900D749F900DD8
:10062000112464E670E01AD56183D4014D915C9188
:100630006B857C85649FC001659F900D749F900DB4
:10064000112464E670E00AD56083D4014D915C9179
:100650006D857E85649FC001659F900D749F900D90
:10066000112464E670E0FAD462832F5F3F4FC50126
:1006700001965C0107C097FF05C02F5F3F4FD50172
:1006800011965D01BFEF2B1A3B0A95CFB092A902DC
:10069000A092A80230937F0220937E02F1E06F1AAD
:1006A000710822E0421A51083DCF1092A90210921F
:1006B000A802D8018C9181110AC0EB89FC89808144
:1006C000918120853185820F931F91838083D7018B
:1006D0008C91811108C0EB89FC89808191814497BC
:1006E00014F0F1E0FC93AB89BC898D919C9111973A
:1006F0001A962D913C911B97821B930BCE9774F009
:100700001D921C92B4E0CB16D1040CF445C0E981D3
:10071000FA811082D8011C92F701108210927F0298
:1007200010927E02FFEFCF1ADF0A29813A812F5EF5
:100730003F4F3A8329834B895C894F5E5F4F5C8BC7
:100740004B8B0F5E1F4F51E1E50EF11C6EE0C6169C
:10075000D10409F0BBCE73DE2F853889B901882713
:1007600077FD8095982F64960FB6F894DEBF0FBE84
:10077000CDBFDF91CF911F910F91FF90EF90DF9050
:10078000CF90BF90AF909F908F907F906F905F9031
:100790004F903F902F9024C1E1E0D801EC93D70116
:1007A0001C92BCCF0F93001401E00A95F1F70F9152
:1007B00008950F93001402E00A95F1F70F91089540
:1007C000DF92EF92FF920F931F93CF93DF93F894F2
:1007D000DC011296FC9012971396ED91FC91149700
:1007E000EA01CC0FDD1FC40FD51FC60FD71FE08055
:1007F000EF288081F094F822F0828B01C017D10796
:1008000008F464C0F801D1908F01E0920201001455
:1008100000140014D7FEF0920201C4DFF09202012E
:10082000C8DFE0920201001400140014D6FEF0921A
:100830000201B8DFF0920201BCDFE0920201001475
:1008400000140014D5FEF0920201ACDFF092020118
:10085000B0DFE0920201001400140014D4FEF09204
:100860000201A0DFF0920201A4DFE0920201001475
:1008700000140014D3FEF092020194DFF092020102
:1008800098DFE0920201001400140014D2FEF092EE
:10089000020188DFF09202018CDFE0920201001475
:1008A00000140014D1FEF09202017CDFF0920201EC
:1008B00080DFE0920201001400140014D0FEF092D8
:1008C000020170DFF0920201001498CF7894DF915A
:1008D000CF911F910F91FF90EF90DF90089583E6E5
:1008E00092E09093AB028093AA02089580E694E090
:1008F00023D11816190624F480E694E036D158DD89
:100900008CE390E0B6CD1F920F920FB60F92112498
:100910002F933F938F939F93AF93BF9380915804EE
:1009200090915904A0915A04B0915B0430915704FE
:1009300023E0230F2D3720F40196A11DB11D05C022
:1009400026E8230F0296A11DB11D20935704809322
:10095000580490935904A0935A04B0935B04809177
:100960005C0490915D04A0915E04B0915F040196D7
:10097000A11DB11D80935C0490935D04A0935E045F
:10098000B0935F04BF91AF919F918F913F912F9151
:100990000F900FBE0F901F9018953FB7F89480915D
:1009A0005C0490915D04A0915E04B0915F0426B553
:1009B000A89B05C02F3F19F00196A11DB11D3FBF97
:1009C0006627782F892F9A2F620F711D811D911D27
:1009D00042E0660F771F881F991F4A95D1F7089547
:1009E000CF92DF92EF92FF92CF93DF936B017C0166
:1009F000D4DFEB01C114D104E104F10479F02DD36B
:100A0000CCDF6C1B7D0B683E7340A0F381E0C81AFD
:100A1000D108E108F108C851DC4FECCFDF91CF914C
:100A2000FF90EF90DF90CF900895789484B5826026
:100A300084BD84B5816084BD85B5826085BD85B582
:100A4000816085BDEEE6F0E0808181608083E1E831
:100A5000F0E0108280818260808380818160808369
:100A6000E0E8F0E0808181608083E1EBF0E080816C
:100A700084608083E0EBF0E0808181608083E1E945
:100A8000F0E0808182608083808181608083E0E902
:100A9000F0E0808181608083E1EAF0E08081826023
:100AA0008083808181608083E0EAF0E080818160E2
:100AB0008083E1E2F1E080818260808380818160D7
:100AC0008083E0E2F1E0808181608083EAE7F0E00A
:100AD0008081846080838081826080838081816066
:100AE00080838081806880831092C100089586335E
:100AF00008F0865320917B00982F9870277F922BC7
:100B000090937B00877020915E0290E4299F900172
:100B10001124822B80937C0080917A0080648093E2
:100B20007A0080917A0086FDFCCF80917800209138
:100B3000790090E0922B0895FC01818D228D90E048
:100B4000805C9F4F821B91098F7399270895FC0148
:100B5000918D828D981731F0828DE80FF11D858D72
:100B600090E008958FEF9FEF0895FC01918D828DA5
:100B7000981761F0828DDF01A80FB11D5D968C91F1
:100B8000928D9F5F9F73928F90E008958FEF9FEFFC
:100B900008958AE697E0892B39F080E090E0892B70
:100BA00019F098D1811125C080E090E0892B41F0A7
:100BB00080E090E0892B21F00E94000081111CC090
:100BC00080E090E0892B41F080E090E0892B21F0DB
:100BD0000E940000811113C080E090E0892BA1F0F9
:100BE00080E090E0892B81F00E94000081110AC012
:100BF00008950E940000D8CF0E940000E1CF0E941B
:100C00000000EACF0C9400000895FC01848DDF0100
:100C1000A80FB11DA35ABF4F2C91848D90E001966F
:100C20008F739927848FA689B7892C93A089B1895E
:100C30008C9180648C93938D848D981306C0028868
:100C4000F389E02D80818F7D80830895CF93DF939A
:100C5000EC01888D8823C1F0EA89FB89808185FDBC
:100C600005C0A889B9898C9186FD0EC00FB607FC16
:100C7000F5CF808185FFF2CFA889B9898C9185FF56
:100C8000EDCFCE01C2DFE8CFDF91CF910895CF92B3
:100C9000DF92FF920F931F93CF93DF931F92CDB7F5
:100CA000DEB76C0181E0D60158968C9358975B961D
:100CB0009C915B975C968C915C97981307C05096BB
:100CC000ED91FC915197808185FD2DC0F601038D3A
:100CD00010E00F5F1F4F0F731127F02EF601848D68
:100CE000F81210C00FB607FCF9CFD6015096ED915F
:100CF000FC915197808185FFF1CFC601698385DF23
:100D00006981ECCF838DE80FF11DE35AFF4F6083BB
:100D1000D6015B960C935B975296ED91FC9153979D
:100D2000808180620CC0D6015696ED91FC91579758
:100D300060835096ED91FC9151978081806480830F
:100D400081E090E00F90DF91CF911F910F91FF9084
:100D5000DF90CF900895BF92CF92DF92EF92FF92F3
:100D6000CF93DF93EC016A017B01B22EE889F98908
:100D700082E08083411581EE58076105710599F085
:100D800060E079E08DE390E0A70196017AD12150EF
:100D900031094109510956954795379527952115F0
:100DA00080E1380790F0E889F989108260E874E8FA
:100DB0008EE190E0A701960164D1215031094109EB
:100DC00051095695479537952795EC85FD853083D4
:100DD000EE85FF852083188EEC89FD89B082EA8933
:100DE000FB89808180618083EA89FB8980818860BA
:100DF0008083EA89FB89808180688083EA89FB8916
:100E000080818F7D8083DF91CF91FF90EF90DF9085
:100E1000CF90BF9008951F920F920FB60F9211249A
:100E20000BB60F922F938F939F93EF93FF93E091C5
:100E30007004F09171048081E0917604F091770460
:100E400082FD12C09081809179048F5F8F73209111
:100E50007A04821751F0E0917904F0E0E05AFB4FF8
:100E6000958F8093790401C08081FF91EF919F91CC
:100E70008F912F910F900BBE0F900FBE0F901F9070
:100E800018951F920F920FB60F9211240BB60F9266
:100E90002F933F934F935F936F937F938F939F9382
:100EA000AF93BF93EF93FF9380E694E0AEDEFF91A4
:100EB000EF91BF91AF919F918F917F916F915F91D2
:100EC0004F913F912F910F900BBE0F900FBE0F903F
:100ED0001F90189580E694E02FDE21E0892B09F41D
:100EE00020E0822F0895109263041092620488EE2D
:100EF00093E0A0E0B0E08093640490936504A09335
:100F00006604B093670481E792E090936104809354
:100F1000600485EC90E090936D0480936C0484EC05
:100F200090E090936F0480936E0480EC90E0909337
:100F300071048093700481EC90E09093730480932B
:100F4000720482EC90E0909375048093740486ECB4
:100F500090E0909377048093760410927904109235
:100F60007A0410927B0410927C04089508955DDD4C
:100F7000FDDF0BDAC9ECD5E0B9DC2097E9F309DE37
:100F8000FBCFCF92DF92EF92FF920F931F93CF93FD
:100F9000DF936C017A01EB01E60EF71E00E010E032
:100FA000CE15DF0561F06991D601ED91FC910190BC
:100FB000F081E02DC6011995080F191FF1CFC80166
:100FC000DF91CF911F910F91FF90EF90DF90CF9025
:100FD0000895611571058105910509F014C1089501
:100FE000CF93DF9300D01F92CDB7DEB79B01AC014A
:100FF000611571058105910559F069833A834B8329
:101000005C83FED029813A814B815C815CD003C036
:1010100060E070E0CB010F900F900F900F90DF9188
:10102000CF910895CF92DF92EF92FF926B017C01F6
:1010300062177307840795075CF4CA01B9016C193C
:101040007D098E099F09CCDF6C0D7D1D8E1D9F1DB6
:10105000FF90EF90DF90CF900895089597FB072EB3
:1010600016F4009406D077FD08D05DD007FC05D0BB
:101070003EF4909581959F4F0895709561957F4FAF
:101080000895A1E21A2EAA1BBB1BFD010DC0AA1FC9
:10109000BB1FEE1FFF1FA217B307E407F50720F0E1
:1010A000A21BB30BE40BF50B661F771F881F991F5C
:1010B0001A9469F760957095809590959B01AC01A5
:1010C000BD01CF010895052E97FB16F400940FD0B3
:1010D00057FD05D0D6DF07FC02D046F408C0509576
:1010E0004095309521953F4F4F4F5F4F0895909514
:1010F0008095709561957F4F8F4F9F4F0895EE0FAC
:10110000FF1F0590F491E02D199421D0A59F900D1B
:10111000B49F900DA49F800D911D112408950790F8
:10112000F691E02D1994AA1BBB1B51E107C0AA1F21
:10113000BB1FA617B70710F0A61BB70B881F991F78
:101140005A95A9F780959095BC01CD010895A29F6D
:10115000B001B39FC001A39F700D811D1124911D8B
:10116000B29F700D811D1124911D08958F929F9241
:10117000AF92BF92CF92DF92EF92FF92CF93DF9325
:10118000EC01688179818A819B81611571058105F6
:10119000910521F464E279ED8BE597E02DE133EFE1
:1011A00041E050E090DF49015A019B01AC01A7EA00
:1011B000B1E4ABDF6B017C01ACEEB4EFA5019401AF
:1011C00034D0C60ED71EE81EF91EF7FE06C081E019
:1011D000C81AD108E10880E8F80AC882D982EA82F0
:1011E000FB82C701B6019F77DF91CF91FF90EF900F
:1011F000DF90CF90BF90AF909F908F900895B6CF23
:1012000080E092E0B3CF609300027093010280937C
:101210000202909303020895DC0101C06D934150D6
:101220005040E0F70895B7FF70CF6FDF821B930B3C
:061230000895F894FFCFC1
:1012360001000000030064006400640064006400B0
:1012460064000600060001000000FF0000FF000029
:10125600FF000000FFFF000000FFFF0066006600C1
:10126600CC00FF0000ABFF00FF0900000080FF007C
:1012760005000A000F00140019001E001E001900C8
:1012860014000F000A0005000C00FFFFFF0001001C
:10129600000000B700AD00E003B400B60000000097
:0E12A600004706C1079C05B505A705260600F2
:00000001FF
