:100000000C9471010C9499010C9499010C94990130
:100010000C9499010C9499010C9499010C949901F8
:100020000C9499010C9499010C94D40E0C94A00D8D
:100030000C9499010C9499010C9499010C949901D8
:100040000C9499010C9499010C9499010C949901C8
:100050000C9499010C9499010C9499010C941D082D
:100060000C9499010C9499010C9499010C949901A8
:100070000C9499010C9499010C9499010C94990198
:100080000C9499010C9499010C9499010C94990188
:100090000C94F0060C9499010C9499010C9499011C
:1000A0000C9499010C9499010C9499014002450219
:1000B0004A024F0254025B02620269027002510955
:1000C0005409430947094D09750975097509580906
:1000D0005C09600966096A09750970090706050463
:1000E0000100080A0B0C0D090000000200090F00B6
:1000F00000030401000C00000000000000000000EC
:1001000000000000000004080201104080401020A0
:1001100040804080080204018040201002011080CD
:1001200010204040040404040403040502020202F7
:100130000403020202020606060606060404020280
:10014000020400000000250028002B002E003100D2
:10015000080B000202020100090400000102020073
:1001600000052400100105240101010424020605F4
:100170002406000107058103100040090401000264
:100180000A00000007050202400000070583024044
:10019000000000C18081C112010002020000404144
:1001A000233680000101020001120100020000005C
:1001B00040412336800001010200014172647569EB
:1001C0006E6F204C4C430041726475696E6F204C19
:1001D000656F6E6172646F00040309040000000023
:1001E000000000002A2B2800000000000000000092
:1001F0000000000000000000000000002C9EB4A0E1
:10020000A1A2A434A6A7A5AE362D3738271E1F20DD
:10021000212223242526B333B62EB7B89F848586A2
:100220008788898A8B8C8D8E8F90919293949596E6
:100230009798999A9B9C9D2F3130A3AD3504050664
:100240000708090A0B0C0D0E0F10111213141516C6
:100250001718191A1B1C1DAFB1B0B5000904020014
:1002600001030000000921010100012265000705CA
:10027000840340000105010902A1010901A10085D3
:10028000010509190129031500250195037501814F
:1002900002950175058103050109300931093815F9
:1002A00081257F750895038106C0C005010906A157
:1002B000018502050719E029E7150025017501955B
:1002C00008810295017508810395067508150025BA
:1002D000650507190029658100C0950597066F0A15
:1002E000C71011241FBECFEFDAE0DEBFCDBF11E093
:1002F000A0E0B1E0E6E9F3E202C005900D92A63B72
:10030000B107D9F724E0A6EBB1E001C01D92A33CF0
:10031000B207E1F712E0C2EED2E004C02297FE017C
:100320000E942B11CA3DD107C9F70E948D0A0C9477
:10033000C9110C940000DC01ED91FC910190F08159
:10034000E02D099481E008950895249A20E1FC01AC
:10035000228325E230E03483238308952F923F9255
:100360004F925F926F927F928F929F92AF92BF92C5
:10037000CF92DF92EF92FF920F931F93CF93DF9371
:1003800000D000D0CDB7DEB7809016019090170155
:10039000E0900401F0900501C0901201D09013018B
:1003A00021EB32E03C832B83A3EBB2E082E992E0C5
:1003B0009A83898380E090E02EEC222E21E0322E79
:1003C00032ED432E31E0532E46ED642E41E0742E83
:1003D0005AEDA52E51E0B52E41E050E06AE571E0FE
:1003E00008E511E0E981FA81128A118A9D01215004
:1003F0003109F90110828430910564F5009741F0CC
:10040000E981FA81208131812B5E3F4F328B218B34
:10041000E981FA8121893289243131051CF0F1E02A
:10042000FC9301C01C92E981FA81568B458B748B39
:10043000638B108F078B528F418F2CE030E0348F0D
:10044000238F20E431E0368F258F21E0EB81FC8182
:1004500020835EC0E981FA81968A858A9C012550B5
:1004600031092930310528F42A5A3F4FF9010C94FB
:1004700029112EED31E03093EA022093E90236C0D3
:10048000B092FB02A092FA0231C070920C0360920B
:100490000B032CC050921D0340921C0327C03092C6
:1004A0002E0320922D0322C0EAECF1E0F0933F03EB
:1004B000E0933E031BC026EC31E0309350032093C1
:1004C0004F0314C0E2ECF1E0F0936103E0936003AA
:1004D0000DC02EEB31E0309372032093710306C000
:1004E000EAEBF1E0F0938303E093820324E131E04F
:1004F000E981FA81308F278BF28EE18ED48EC38E04
:1005000026E031E0368F258FEB81FC8110821C9232
:1005100001962B813C812F5E3F4F3C832B8351966C
:10052000E981FA817196FA83E9838E30910509F0A9
:1005300059CF0F900F900F900F90DF91CF911F9197
:100540000F91FF90EF90DF90CF90BF90AF909F9072
:100550008F907F906F905F904F903F902F90089575
:10056000E091E401F091E5010190F081E02D84EE4D
:1005700091E0099540E855E260E070E08DE594E097
:100580000E94690A0E94AE0162E070E081E993E096
:100590000E9490066CE975E081E993E00C94920664
:1005A0001F93CF93DF9380E00E940809BC01882746
:1005B00077FD8095982F0E94480FE5EFF2E084E0E8
:1005C00090E02081211126C021E1289FE001299F90
:1005D000D00D1124CD55DD4F11E01E872AE030E00B
:1005E00040E050E060E070E0CB010E94740FFB013E
:1005F000EE0FFF1FEE0FFF1FE85EFE4F808191811F
:10060000A281B381EA81FB8180839183A283B3833A
:100610001F8705C0019671968E30910591F6DF9186
:10062000CF911F9108954AEB50E063E070E089EEAE
:1006300091E00C94BA11E091E401F091E50104809D
:10064000F581E02D4EE350E069EE71E084EE91E03B
:1006500009940E9413030C941B030F931F93462FBE
:10066000082F672F702F842F1F910F9108952F92BD
:100670003F924F925F926F927F928F929F92AF9232
:10068000BF92CF92DF92EF92FF920F931F93CF937F
:10069000DF93CDB7DEB766970FB6F894DEBF0FBE17
:1006A000CDBF988B8F870E94290321EB32E03A83DC
:1006B000298332EBC32E32E0D32E43EBE42E42E00B
:1006C000F42E42EA52E05E8B4D8B00E010E0A981EF
:1006D000BA818C91882309F44BC1ED89FE8925816B
:1006E00036814901F1E08F1A9108C80101968430E2
:1006F000910511F480E090E0A901440F551F5A873D
:100700004987212C312C2D893E89225031093A8B81
:10071000298B61E1689FA001699F500D11244D5400
:100720005D4F5E834D8329853A85225031093C8B8C
:100730002B8B97FCD1C0D6018C918823B1F004306B
:1007400011051CF4ED81FE810AC00430110559F039
:10075000A989BA898C91882331F0ED89FE8980813D
:10076000882309F4B9C0D6011C9289859A85820D27
:10077000931D82509048880F991FAD89BE891396AA
:10078000ED91FC911497E80FF91F608171818281CE
:1007900093810E942D03ED89FE890780F085E02D6D
:1007A0002B893C89220D331DE20FF31FFC83EB8361
:1007B000272F30E038872F83462F50E05C874B8708
:1007C000E82FF0E0FE87ED87E091E201F091E30190
:1007D0002091B6013091B701412C512CAB81BC81E5
:1007E0008D919C91481659060CF067C0AD89BE8961
:1007F00011968D919C9112978E0F9F1F1B964D9174
:100800005C911C97841B950B01968E33910508F023
:100810004BC0A901440F551F1D96AD90BC901E976B
:10082000A40EB51E3C01660C771C680E791EA30150
:1008300047515E4F3A01D5014D915C916F817885AA
:10084000649FC001659F900D749F900D112464E614
:1008500070E00E94D410D30111966C93D5014D9194
:100860005C916B857C85649FC001659F900D749F32
:10087000900D112464E670E00E94D410D3016C93B3
:10088000D5014D915C916D857E85649FC001659F0A
:10089000900D749F900D112464E670E00E94D410B6
:1008A000D30112966C9302C097FF03C02F5F3F4F96
:1008B0003196BFEF4B1A5B0A91CFF093E301E093BF
:1008C000E2013093B7012093B601B1E08B1A910891
:1008D000E2E02E1A31082DCF1092E3011092E201CE
:1008E000D6018C9181110AC0ED89FE8981819281A6
:1008F00021853285820F931F92838183D7018C914A
:10090000811119C0ED89FE89818192810430110520
:100910002CF4449784F0F1E0FC930DC0AD89BE89BE
:1009200019962D913C911A97821B930B06971CF0F8
:1009300021E0F7012083AD89BE8911968D919C91AC
:1009400012971B962D913C911C97821B930BCE976F
:100950007CF012961C921E921197043011050CF433
:1009600046C0E981FA811082D6011C92F7011082FB
:100970001092B7011092B6010F5F1F4F29813A8183
:100980002F5E3F4F3A83298331E1C30ED11C41E1F1
:10099000E40EF11C2D893E892F5E3F4F3E8B2D8B3F
:1009A0000E30110509F093CE0E941B034F85588924
:1009B000BA01882777FD8095982F66960FB6F89430
:1009C000DEBF0FBECDBFDF91CF911F910F91FF9082
:1009D000EF90DF90CF90BF90AF909F908F907F90DF
:1009E0006F905F904F903F902F900C948A08E1E0B9
:1009F000D601EC93D7011C92BBCF80E590E00C941C
:100A000037030F93001401E00A95F1F70F91089551
:100A10000F93001402E00A95F1F70F910895DF9209
:100A2000EF92FF920F931F93CF93DF93F894DC0123
:100A30001296FC9012971396ED91FC911497EA018F
:100A4000CC0FDD1FC40FD51FC60FD71FE080EF28C6
:100A50008081F094F822F0828B01C017D10708F44E
:100A60005BC0F801D1908F01E5B8001400140014A8
:100A7000D7FEF5B80E940105F5B80E940805E5B853
:100A8000001400140014D6FEF5B80E940105F5B854
:100A90000E940805E5B8001400140014D5FEF5B84E
:100AA0000E940105F5B80E940805E5B8001400147D
:100AB0000014D4FEF5B80E940105F5B80E9408059F
:100AC000E5B8001400140014D3FEF5B80E94010527
:100AD000F5B80E940805E5B8001400140014D2FE11
:100AE000F5B80E940105F5B80E940805E5B80014A4
:100AF00000140014D1FEF5B80E940105F5B80E945B
:100B00000805E5B8001400140014D0FEF5B80E94E2
:100B10000105F5B80014A1CF7894DF91CF911F9112
:100B20000F91FF90EF90DF9008958DE691E0909304
:100B3000E5018093E401089581E993E00E94B50501
:100B40009093B9018093B8014AE050E0BC018DE573
:100B500094E00E948C0B0C94D0028091C40390E02E
:100B60002091C503821B910908952091C5038091AE
:100B7000C403281750F4E22FF0E0EA53FC4F8081C1
:100B800090E02F5F2093C50308958FEF9FEF0895A6
:100B9000E091C5038091C403E81730F4F0E0EA5314
:100BA000FC4F808190E008958FEF9FEF08950895A6
:100BB000E0919D03F0919E033097E1F03091C503E1
:100BC0002091C4033217B0F040E0242F30E0261704
:100BD000370754F4DC01A20FB31F5C91D901AA536B
:100BE000BC4F5C934F5FF1CF1092C5036093C40379
:100BF000CB0109940895E0919F03F091A0033097F1
:100C000029F01092A3031092A20309940895CF92A1
:100C1000DF92EF92FF920F931F93CF93DF937C01AC
:100C2000CB018A012091A103222389F0EB016B0102
:100C3000C40ED51ECC15DD0569F06991D701ED9183
:100C4000FC910190F081E02DC7010995F3CF642F4D
:100C50000E94BD06C801DF91CF911F910F91FF90B7
:100C6000EF90DF90CF900895CF93DF931F92CDB791
:100C7000DEB769832091A1032223D1F02091A20342
:100C8000203240F021E030E0FC013383228380E019
:100C900090E015C08091A303E82FF0E0EC55FC4FE5
:100CA000998190838F5F8093A3038093A20305C0F3
:100CB00061E0CE0101960E94BD0681E090E00F90B8
:100CC000DF91CF910895FC011382128248EE53E028
:100CD00060E070E044835583668377838BE791E01F
:100CE0009183808308951092C5031092C4031092DB
:100CF000A3031092A2030C949B06CF93DF93EC0105
:100D0000862F0E94B9068BEF95E00E94DB0688EDE6
:100D100095E00E94D606CE01DF91CF910C94730628
:100D20000C947D0670939E0360939D03089581E962
:100D300093E00C9463061092530481E08093510475
:100D40001092500461E082E00E94760961E083E045
:100D50000E947609E9EBF0E080818E7F80838081BC
:100D60008D7F808388E48093B80085E48093BC0005
:100D70000895880F8093BA000895613298F4209105
:100D80005304243089F460930804FC018AE094E061
:100D9000DC012A2F281B261718F421912D93F9CF57
:100DA00080E0089581E0089582E0089590934D04D5
:100DB00080934C04089590934F0480934E040895BB
:100DC00085ED8093BC008091BC0084FDFCCF109227
:100DD0005304089585EC8093BC0010925304089549
:100DE0001F920F920FB60F9211242F933F934F93A0
:100DF0005F936F937F938F939F93AF93BF93EF9383
:100E0000FF938091B900887F803609F49CC068F513
:100E1000883209F45BC090F4803109F454C038F48E
:100E2000882309F4F5C0883009F44DC0F5C0883135
:100E300009F44CC0803209F45DC0EEC0803409F47E
:100E400068C048F4803309F455C0883309F0E4C021
:100E50008093E603A8C0803509F44FC0883509F4B3
:100E60005DC0883409F0D8C0D5C0883909F4C6C03F
:100E7000A8F4883709F467C038F4883609F463C0E9
:100E8000803709F460C0C8C0883809F4B7C0803919
:100E900009F45FC0803809F0BFC05BC0803B09F433
:100EA00085C038F4803A09F466C0883A09F47EC0F7
:100EB000B3C0803C09F4A6C0883C09F4A3C0883BB9
:100EC00009F489C0A9C08091520410C090912B04EC
:100ED00080912A04981770F5E0912B0481E08E0F21
:100EE00080932B04F0E0E45DFB4F80818093BB0096
:100EF00085EC85C08093E6038DC0E0912B0481E0F2
:100F00008E0F80932B048091BB00F0E0E45DFB4FDB
:100F1000808390912B0480912A046DC0E0912B0472
:100F200081E08E0F80932B048091BB00F0E0E45DA4
:100F3000FB4F80838091510481116CC081E08093CC
:100F4000500484EA60C083E0809353041092E70366
:100F5000CFCF8091E703803208F050C0E091E703E3
:100F600081E08E0F8093E7038091BB00F0E0E851B1
:100F7000FC4F8083BDCF8091E703803230F4E09155
:100F8000E703F0E0E851FC4F10820E94E006609118
:100F9000E70370E0E0914C04F0914D0488EE93E09B
:100FA00009951092E7030E94EA0636C084E0809318
:100FB00053041092090410920804E0914E04F09139
:100FC0004F04099580910804811105C081E0809348
:100FD000080410920A04E091090481E08E0F8093C6
:100FE0000904F0E0E65FFB4F80818093BB009091A5
:100FF000090480910804981708F47ACF85E8809353
:10100000BC000AC085EC8093BC001092530404C05D
:101010001092E6030E94E006FF91EF91BF91AF911D
:101020009F918F917F916F915F914F913F912F9100
:101030000F900FBE0F901F9018951F920F920FB632
:101040000F9211242F933F938F939F93AF93BF934E
:101050008091550490915604A0915704B091580482
:101060003091540423E0230F2D3720F40196A11D65
:10107000B11D05C026E8230F0296A11DB11D2093C6
:1010800054048093550490935604A0935704B0934E
:1010900058048091590490915A04A0915B04B09136
:1010A0005C040196A11DB11D8093590490935A04CC
:1010B000A0935B04B0935C04BF91AF919F918F911B
:1010C0003F912F910F900FBE0F901F9018953FB733
:1010D000F8948091590490915A04A0915B04B091C6
:1010E0005C0426B5A89B05C02F3F19F00196A11DF1
:1010F000B11D3FBF6627782F892F9A2F620F711D70
:10110000811D911D42E0660F771F881F991F4A9528
:10111000D1F70895CF92DF92EF92FF92CF93DF93B2
:101120006B017C010E946708EB01C114D104E1044A
:10113000F10489F00E94900F0E9467086C1B7D0BE0
:10114000683E734090F381E0C81AD108E108F108C5
:10115000C851DC4FEACFDF91CF91FF90EF90DF9045
:10116000CF900895789484B5826084BD84B5816001
:1011700084BD85B5826085BD85B5816085BDEEE69F
:10118000F0E0808181608083E1E8F0E0108280817E
:1011900082608083808181608083E0E8F0E08081EC
:1011A00081608083E1E9F0E08081826080838081DA
:1011B00081608083E0E9F0E0808181608083E1EC00
:1011C000F0E0808184608083808182608083808180
:1011D00081608083E3ECF0E0808181608083E0ECDB
:1011E000F0E0808182608083E2ECF0E080818160C9
:1011F0008083EAE7F0E08081846080838081826080
:10120000808380818160808380818068808308956D
:10121000823108F08251E82FF0E0E452FF4FE49170
:1012200080917B00E3FB222720F930E095E0220F3C
:10123000331F9A95E1F78F7D822B80937B00E770B7
:1012400080915E0120E4829FC0011124E82BE0938D
:101250007C0080917A00806480937A0080917A008B
:1012600086FDFCCF809178002091790090E0922B50
:10127000089590E0FC013197EF30F105B0F5E15AA7
:10128000FF4F0C942911809180008F7703C08091CB
:1012900080008F7D80938000089580918000877FFB
:1012A000F9CF84B58F7702C084B58F7D84BD089552
:1012B000809190008F7707C0809190008F7D03C050
:1012C00080919000877F8093900008958091C00066
:1012D0008F7703C08091C0008F7D8093C0000895F8
:1012E0008091C200877F8093C20008950F931F935F
:1012F000CF93DF931F92CDB7DEB7282F30E0F901EF
:10130000E851FF4F8491F901EA5FFE4F1491F90112
:10131000EC5DFE4F04910023C9F0882321F069831E
:101320000E9439096981E02FF0E0EE0FFF1FEE5BAC
:10133000FE4FA591B4919FB7F8948C91611103C0B1
:101340001095812301C0812B8C939FBF0F90DF915B
:10135000CF911F910F910895CF93DF931F92CDB737
:10136000DEB76983DC01ED91FC910280F381E02D11
:1013700041E050E0BE016F5F7F4F09950F90DF9114
:10138000CF910895CF93DF93EC018C859D8597FFD6
:1013900005C082E00E94750C9D878C878C859D8599
:1013A000DF91CF91089583E00C94CA0EFC018485EF
:1013B000958597FD06C082E00E941D0C90E0019685
:1013C000089582E00E941D0C90E00895FC01848540
:1013D000958597FD05C02FEF3FEF3587248708954A
:1013E00082E00C94750CCF93DF93EC018091660141
:1013F000882331F083E00E94A60C1816190634F0F9
:1014000081E090E09B838A8380E090E0DF91CF9140
:101410000895FC0120812E5F208342E450E060E5C6
:1014200071E080E80C94410DFC0181819081913A3A
:1014300059F4813209F03CC047E050E06FE571E0BB
:1014400080E00E94410D43C0913291F5803239F421
:1014500067E070E08FE591E00E94720D06C0823275
:1014600009F035C082818093660180915F0190917F
:101470006001A0916101B0916201803B9440A1059F
:10148000B105C1F48091660180FD14C087E797E73C
:1014900090930108809300082BE088E190E00FB65C
:1014A000F894A895809360000FBE209360000FC051
:1014B00080E0089588E10FB6F89480936000109260
:1014C00060000FBEA895109201081092000881E0FC
:1014D00008952FEF3FEFFC01358724870895109280
:1014E000600410925F0488EE93E0A0E0B0E0809387
:1014F000610490936204A0936304B09364048BE846
:1015000091E090935E0480935D048FEF9FEF909342
:101510006A0480936904089508950E94B2080E94A5
:101520008C0A8DEA94E00E942A0F0E94B002C0E06B
:10153000D0E00E94FD042097E1F30E940000F9CF63
:10154000CF92DF92EF92FF920F931F93CF93DF938F
:101550006C017A01EB01E60EF71E00E010E0CE15FB
:10156000DF0561F06991D601ED91FC910190F08168
:10157000E02DC6010995080F191FF1CFC801DF91B1
:10158000CF911F910F91FF90EF90DF90CF90089532
:101590006115710581F0DB010D900020E9F7AD01C7
:1015A00041505109461B570BDC01ED91FC91028023
:1015B000F381E02D099480E090E00895DC01ED9145
:1015C000FC910190F081E02D099467E971E00C94A1
:1015D000C80A8F929F92AF92BF92CF92DF92EF9202
:1015E000FF920F931F93CF93DF93CDB7DEB7A197F1
:1015F0000FB6F894DEBF0FBECDBF7C01C42EE52F21
:10160000CB01D22E19A221E02D1510F02AE0D22E06
:101610008E010F5D1F4F8D2C912CA12CB12C6C2DA8
:101620007E2FA50194010E94E8108C2DD29E801976
:101630001124015011098A3014F4805D01C0895CC5
:10164000F8018083211531054105510521F0C22E95
:10165000E32FCA01E4CFB801C7010E94C80AA196CE
:101660000FB6F894DEBF0FBECDBFDF91CF911F91B3
:101670000F91FF90EF90DF90CF90BF90AF909F9031
:101680008F900895CF92DF92EF92FF920F931F9366
:10169000CF93DF93EC016A017B012115310579F4C9
:1016A000E881F9810190F081E02D642FDF91CF91E5
:1016B0001F910F91FF90EF90DF90CF9009942A3007
:1016C0003105E9F477FF1AC06DE20E94DE0A8C0151
:1016D00044275527BA014C195D096E097F092AE094
:1016E000CE010E94E90A800F911FDF91CF911F91D7
:1016F0000F91FF90EF90DF90CF9008952AE0B7010F
:10170000A601CE01DF91CF911F910F91FF90EF9035
:10171000DF90CF900C94E90A0F931F93CF93DF9340
:10172000EC019A01AB01662757FD6095762F0E9468
:10173000420B8C01CE010E94E50A800F911FDF91C0
:10174000CF911F910F9108954091B1045091B2042F
:101750002091AF043091B00442175307B4F4909134
:10176000E8009570E1F39091E80092FD19C0809334
:10177000F1008091B1049091B20401968F73992782
:10178000892B19F48EEF8093E8008091B104909139
:10179000B20401969093B2048093B10481E008955D
:1017A00080E00895CF92DF92FF920F931F93CF9323
:1017B000DF931F92CDB7DEB7082F162F862F880F25
:1017C0008E5F99830E94A40B83E00E94A40BF02EED
:1017D000C02E9981D92E8C2D8F19811778F4F6019E
:1017E00084910E94A40B082F80E00E94A40B802308
:1017F000FFEFCF1ADF0A8111EECF01C081E00F9019
:10180000DF91CF911F910F91FF90DF90CF900895BE
:10181000615030F02091F100FC0120830196F8CF57
:10182000289884E68093B40408952FB7FC012083A0
:10183000F89467706093E9000895CF93DF931F9247
:10184000CDB7DEB7682FCE0101960E94150C8091AE
:10185000F20099819FBF0F90DF91CF910895FF9281
:101860000F931F93CF93DF9300D0CDB7DEB7F62E43
:101870008A019091B304992311F057FF03C08FEFB1
:101880009FEF2BC0682FCE0101967A830E94150C22
:101890008091F20090E0A8017A81801791070CF402
:1018A000AC01EF2DF72FF40E84E6FE1639F02898E0
:1018B0008093B4049091F1009193F7CF41155105B5
:1018C00021F08091F200882321F089818FBFCA0125
:1018D00004C08BE68093E800F8CF0F900F90DF9163
:1018E000CF911F910F91FF900895CF93DF931F9297
:1018F000CDB7DEB741E050E0BE016F5F7F4F0E9481
:101900002F0C019719F4898190E002C08FEF9FEFAF
:101910000F90DF91CF910895CF93DF931F92CDB7B2
:10192000DEB7682FCE0101960E94150C9091E80059
:10193000892F807295FF04C09091F20080E4891B8A
:1019400099819FBF0F90DF91CF9108956F927F9201
:101950008F929F92AF92BF92CF92DF92EF92FF92BF
:101960000F931F93CF93DF931F92CDB7DEB7782EDF
:101970007B01C42EB52E8091B304882369F0042F17
:10198000152F8AEFD82E872D8072982E9AE3A92ED4
:10199000872D8074882E11C08FEF9FEF57C0872D41
:1019A0000E948C0C682E81110CC0DA94A9F361E0BE
:1019B00070E080E090E00E948A080115110579F737
:1019C0003BC0282F30E0021713070CF4602E672D60
:1019D000CE0101960E94150C8091E80085FF29C078
:1019E000262D30E0021B130B992039F06A948FEFFB
:1019F0006816B1F01092F100F9CFF701862D77FE4D
:101A000007C0815058F094919093F1003196F9CF2E
:101A1000815020F091919093F100FACFE20EF31EE5
:101A20008091E80085FF0FC00115110511F48110A8
:101A30000AC089818FBFC1CF5D9884E68093B504C9
:101A40008C2D9B2D03C0A092E800F3CF0F90DF9167
:101A5000CF911F910F91FF90EF90DF90CF90BF90AB
:101A6000AF909F908F907F906F9008951092E900B3
:101A70001092B2041092B1049093B0048093AF041A
:101A80000895CF92DF92FF920F931F93CF93DF932E
:101A900000D0CDB7DEB7F82E8A016B010115110514
:101AA000B1F0F601F7FE02C0849101C08081498344
:101AB0005A830E94A40B01501109FFEFCF1ADF0ACD
:101AC00049815A818111EACF8FEF9FEF01C0CA018E
:101AD0000F900F90DF91CF911F910F91FF90DF90AA
:101AE000CF9008951F93CF93DF931F92CDB7DEB7AA
:101AF000162F2091E80022FFFCCF612F79830E94EE
:101B0000080C8BEF8093E800812F7981972F0F903D
:101B1000DF91CF911F910895CF93DF931F92CDB79F
:101B2000DEB71982CE0101960E94090ACE01019604
:101B30000E94AF0F898190E00F90DF91CF910895BF
:101B40001F920F920FB60F921124EF92FF920F93F4
:101B50001F932F933F934F935F936F937F938F9335
:101B60009F93AF93BF93EF93FF93CF93DF93CDB743
:101B7000DEB76297DEBFCDBF1092E9008091E8002A
:101B800083FFEBC068E0CE010A960E94080C82EF4A
:101B90008093E8009A8597FF05C08091E80080FF58
:101BA000FCCF03C08EEF8093E800892F807609F088
:101BB000B9C08B85811105C01092F1001092F1001F
:101BC000C5C0282F2D7F213009F4C0C0853049F4CD
:101BD0008091E80080FFFCCF8C8580688093E300D3
:101BE000B5C0863009F076C02D85E888F9882230A6
:101BF00071F580E090E02A8B0E94360D0E948C0DDA
:101C000099E08E010F5F1F4FF801392F11923A951D
:101C1000E9F799832A892A8391E09E8390E898873F
:101C20009AEF99872091B1043091B204275F3F4F1A
:101C30003C832B838D83C7010E94360D49E050E021
:101C4000B80180E00E94410D0E948C0D7FC0C70149
:101C50002A8B0E94360D2A89223241F482E290E0DA
:101C60000E94BA0F892B09F071C074C0213069F449
:101C700088899989089711F42093AE048091AE0465
:101C8000811118C069EA71E01AC0233009F062C0FE
:101C90008C85882391F0823021F460E187EC91E01B
:101CA00006C0813009F056C06BE08BEB91E00E94DA
:101CB000D20B4AC067E971E002C068ED71E06115BE
:101CC000710509F447C0FB01449150E080E80E948F
:101CD000410D3CC0873009F43DC0883021F481E0DB
:101CE0008093F10033C0893089F5937099F5E3E969
:101CF000F1E081E021E096E38093E9002093EB009E
:101D000034913093EC009093ED008F5F31968530E5
:101D100099F78EE78093EA001092EA008C85809311
:101D2000B30414C0888999890E94360D8E8581116B
:101D300005C0CE010A960E94140A06C0823051F4F2
:101D4000CE010A960E94E20F882321F08EEF809345
:101D5000E80003C081E28093EB0062960FB6F8942E
:101D6000DEBF0FBECDBFDF91CF91FF91EF91BF914D
:101D7000AF919F918F917F916F915F914F913F9123
:101D80002F911F910F91FF90EF900F900FBE0F902A
:101D90001F9018958093E9008091F200882319F034
:101DA0008AE38093E80008951F920F920FB60F9276
:101DB00011242F933F934F935F936F937F938F9350
:101DC0009F93AF93BF93EF93FF938091E1001092A5
:101DD000E10083FF0FC01092E90091E09093EB00C7
:101DE0001092EC0092E39093ED001092B30498E00F
:101DF0009093F00082FF1DC083E00E94CA0E809184
:101E0000B504882339F08091B50481508093B504DE
:101E1000882369F08091B404882359F08091B40438
:101E200081508093B404811104C0289A02C05D9A45
:101E3000F1CFFF91EF91BF91AF919F918F917F91E2
:101E40006F915F914F913F912F910F900FBE0F9027
:101E50001F9018951092B30481E08093D70080EA18
:101E60008093D80082E189BD09B400FEFDCF61E016
:101E700070E080E090E00E948A0880E98093D800BA
:101E80008CE08093E2001092E000559A209A089529
:101E9000611571058105910511F00C94B11108953A
:101EA000CF93DF9300D000D0CDB7DEB79B01AC015C
:101EB000611571058105910569F069833A834B834A
:101EC0005C830E94AC1129813A814B815C810E9424
:101ED0000A1103C060E070E0CB010F900F900F90EB
:101EE0000F90DF91CF910895CF92DF92EF92FF9202
:101EF0006B017C01621773078407950764F4CA01BC
:101F0000B9016C197D098E099F090E94500F6C0D53
:101F10007D1D8E1D9F1DFF90EF90DF90CF90089547
:101F20000895FF920F931F93CF93DF93EC01F62E4A
:101F3000E881F9810480F581E02D09958C01E88123
:101F4000F9810680F781E02D6F2DCE010995C8013A
:101F50009927DF91CF911F910F91FF900895FC0178
:101F600020812F5F208349E150E06CE572E080E83A
:101F70000C94410D45E650E065E772E080E80C9472
:101F8000410DEF92FF920F931F93CF93DF931F9218
:101F9000CDB7DEB789838B017A0141E050E0BE0105
:101FA0006F5F7F4F84E00E94A60CA701B80184E414
:101FB0000E94A60C0F90DF91CF911F910F91FF907F
:101FC000EF900895FC0191818081813A31F481E0A4
:101FD000913091F0933089F411C0813271F49B30CB
:101FE00021F482818093680105C09A3031F48281A6
:101FF0008093670181E00895089580E0089548E0A6
:1020000050E082E00C94C10FCF93DF93DC0168387D
:1020100018F0E8E7E60F25C0E62FF0E067FF11C0F3
:10202000E058F10981E090E001C0880FEA95EAF7F5
:1020300014969C911497982B14969C931497E0E017
:1020400010C0E452FE4FE491EE2309F440C0E7FFD4
:1020500008C014968C911497826014968C931497F0
:10206000EF7716968C9116978E1741F117968C91F3
:1020700017978E1719F118968C9118978E17F1F003
:1020800019968C9119978E17C9F01A968C911A97F8
:102090008E17A1F01B968C911B978E1779F080E01C
:1020A00090E0ED01C80FD91F2E81211102C0EE83EF
:1020B00005C0019686309105A1F709C0BD016C5F8E
:1020C0007F4FCD010E94FF0F81E090E008C081E0CA
:1020D00090E013969C938E93129780E090E0DF91AE
:1020E000CF910895683818F0E8E7E60F25C0E62F8D
:1020F000F0E067FF12C0E058F10921E030E001C0D4
:10210000220FEA95EAF72095DC0114963C9114978A
:10211000322314963C93E0E00FC0E452FE4FE4916A
:10212000EE2329F1E7FF08C0DC0114962C911497E7
:102130002D7F14962C93EF7720E030E0EE2351F0C2
:10214000DC01A20FB31F16964C9116974E1302C0D6
:1021500016961C922F5F3F4F2630310579F7BC0150
:102160006C5F7F4F0E94FF0F81E090E0089580E058
:1021700090E00895FC01168217821086118612865F
:1021800013861482BC016C5F7F4F0C94FF0F10927A
:10219000C2041092B9041092B8048CEA91E09093B2
:1021A000B7048093B604089597FB072E16F40094A5
:1021B00007D077FD09D00E943A1107FC05D03EF404
:1021C000909581959F4F0895709561957F4F0895E3
:1021D000A1E21A2EAA1BBB1BFD010DC0AA1FBB1F2B
:1021E000EE1FFF1FA217B307E407F50720F0A21B9D
:1021F000B30BE40BF50B661F771F881F991F1A940A
:1022000069F760957095809590959B01AC01BD0133
:10221000CF010895052E97FB1EF400940E94211112
:1022200057FD07D00E94E81007FC03D04EF40C9431
:10223000211150954095309521953F4F4F4F5F4F5D
:10224000089590958095709561957F4F8F4F9F4F22
:102250000895EE0FFF1F0590F491E02D09940E9460
:102260004E11A59F900DB49F900DA49F800D911DC0
:1022700011240895AA1BBB1B51E107C0AA1FBB1F55
:10228000A617B70710F0A61BB70B881F991F5A9502
:10229000A9F780959095BC01CD010895A29FB0014A
:1022A000B39FC001A39F700D811D1124911DB29F8A
:1022B000700D811D1124911D08958F929F92AF92F0
:1022C000BF92CF92DF92EF92FF92CF93DF93EC0118
:1022D000688179818A819B816115710581059105EC
:1022E00021F464E279ED8BE597E02DE133EF41E0F5
:1022F00050E00E940A1149015A019B01AC01A7EA72
:10230000B1E40E942F116B017C01ACEEB4EFA5018A
:1023100094010E94C411C60ED71EE81EF91EF7FED6
:1023200006C081E0C81AD108E10880E8F80AC8822E
:10233000D982EA82FB82C701B6019F77DF91CF91F4
:10234000FF90EF90DF90CF90BF90AF909F908F90D5
:1023500008950E945D11089580E091E00E945D1152
:10236000089560930001709301018093020190939E
:1023700003010895DC0101C06D9341505040E0F726
:102380000895B7FF0C942F110E942F11821B930BFD
:062390000895F894FFCF50
:10239600010000000400640064006400640064003E
:1023A60064000600060001000000FF0000FF0000B8
:1023B600FF000000FFFF000000FFFF006600660050
:1023C600CC00FF0000ABFF00FF0900000080FF000B
:1023D60005000A000F00140019001E001E00190057
:1023E60014000F000A0005000C00FFFFFF000100AB
:1023F600E1000000000000010100000000A5019BB3
:10240600010F05A201A4010000000034060706AD75
:1024160005B505C805D70500000000AC09F309D6C7
:1024260009E609C209D3090D0A006E616E00696EDC
:1024360066006F7666002E0000000000910FA00A6D
:0624460004107210BA1030
:00000001FF
