:100000000C9471010C9499010C9499010C94990130
:100010000C9499010C9499010C9499010C949901F8
:100020000C9499010C9499010C94090D0C94D50B26
:100030000C9499010C9499010C9499010C949901D8
:100040000C9499010C9499010C9499010C949901C8
:100050000C9499010C9499010C9499010C940E083C
:100060000C9499010C9499010C9499010C949901A8
:100070000C9499010C9499010C9499010C94990198
:100080000C9499010C9499010C9499010C94990188
:100090000C94E1060C9499010C9499010C9499012B
:1000A0000C9499010C9499010C9499014002450219
:1000B0004A024F0254025B02620269027002420964
:1000C0004509340938093E0966096609660949097E
:1000D0004D09510957095B096609610907060504BD
:1000E0000100080A0B0C0D090000000200090F00B6
:1000F00000030401000C00000000000000000000EC
:1001000000000000000004080201104080401020A0
:1001100040804080080204018040201002011080CD
:1001200010204040040404040403040502020202F7
:100130000403020202020606060606060404020280
:10014000020400000000250028002B002E003100D2
:1001500000C18081C112010002020000404123362B
:100160008000010102000112010002000000404174
:1001700023368000010102000141726475696E6FCF
:10018000204C4C430041726475696E6F204C656F62
:100190006E6172646F0004030904080B000202021E
:1001A0000100090400000102020000052400100102
:1001B00005240101010424020605240600010705A7
:1001C000810310004009040100020A000000070535
:1001D000020240000007058302400000000000000A
:1001E000000000002A2B2800000000000000000092
:1001F0000000000000000000000000002C9EB4A0E1
:10020000A1A2A434A6A7A5AE362D3738271E1F20DD
:10021000212223242526B333B62EB7B89F848586A2
:100220008788898A8B8C8D8E8F90919293949596E6
:100230009798999A9B9C9D2F3130A3AD3504050664
:100240000708090A0B0C0D0E0F10111213141516C6
:100250001718191A1B1C1DAFB1B0B5000904020014
:1002600001030000000921010100012265000705CA
:10027000840340000105010902A1010901A10085D3
:10028000010509190129031500250195037501814F
:1002900002950175058103050109300931093815F9
:1002A00081257F750895038106C0C005010906A157
:1002B000018502050719E029E7150025017501955B
:1002C00008810295017508810395067508150025BA
:1002D000650507190029658100C08D058806830E14
:1002E000D60F11241FBECFEFDAE0DEBFCDBF11E085
:1002F000A0E0B1E0E4EBF1E202C005900D92A63A75
:10030000B107D9F724E0A6EAB1E001C01D92A33BF2
:10031000B207E1F712E0C2EED2E004C02297FE017C
:100320000E943A10CA3DD107C9F70E949E090C9459
:10033000D8100C940000DC01ED91FC910190F0814B
:10034000E02D099481E008950895249A20E1FC01AC
:10035000228325E230E03483238308952F923F9255
:100360004F925F926F927F928F929F92AF92BF92C5
:10037000CF92DF92EF92FF920F931F93CF93DF9371
:1003800000D000D0CDB7DEB7809016019090170155
:10039000E0900401F0900501C0901201D09013018B
:1003A00021EA32E03C832B83A3EAB2E082E892E0C8
:1003B0009A83898380E090E02EEB222E21E0322E7A
:1003C00032EC432E31E0532E46EC642E41E0742E85
:1003D0005AECA52E51E0B52E41E050E06AE571E0FF
:1003E00008E511E0E981FA81128A118A9D01215004
:1003F0003109F90110828430910564F5009741F0CC
:10040000E981FA81208131812B5E3F4F328B218B34
:10041000E981FA8121893289243131051CF0F1E02A
:10042000FC9301C01C92E981FA81568B458B748B39
:10043000638B108F078B528F418F2CE030E0348F0D
:10044000238F20E431E0368F258F21E0EB81FC8182
:1004500020835EC0E981FA81968A858A9C012550B5
:1004600031092930310528F42A5A3F4FF9010C94FB
:1004700038102EEC31E03093DA022093D90236C0E6
:10048000B092EB02A092EA0231C07092FC0260923C
:10049000FB022CC050920D0340920C0327C03092F7
:1004A0001E0320921D0322C0EAEBF1E0F0932F031C
:1004B000E0932E031BC026EB31E0309340032093E2
:1004C0003F0314C0E2EBF1E0F0935103E0935003DB
:1004D0000DC02EEA31E0309362032093610306C021
:1004E000EAEAF1E0F0937303E093720324E131E070
:1004F000E981FA81308F278BF28EE18ED48EC38E04
:1005000026E031E0368F258FEB81FC8110821C9232
:1005100001962B813C812F5E3F4F3C832B8351966C
:10052000E981FA817196FA83E9838E30910509F0A9
:1005300059CF0F900F900F900F90DF91CF911F9197
:100540000F91FF90EF90DF90CF90BF90AF909F9072
:100550008F907F906F905F904F903F902F90089575
:10056000E091D401F091D5010190F081E02D84ED6E
:1005700091E009950E94AE0162E070E081E893E0AD
:100580000E94810664E975E081E893E00C9483069B
:100590001F93CF93DF9380E00E94F908BC01882766
:1005A00077FD8095982F0E947D0DE5EEF2E084E0C6
:1005B00090E02081211126C021E1289FE001299FA0
:1005C000D00D1124CD56DD4F11E01E872AE030E01A
:1005D00040E050E060E070E0CB010E94A90DFB011B
:1005E000EE0FFF1FEE0FFF1FE85EFE4F808191812F
:1005F000A281B381EA81FB8180839183A283B3834B
:100600001F8705C0019671968E30910591F6DF9196
:10061000CF911F9108954AEB50E063E070E089EDBF
:1006200091E00C94C910E091D401F091D5010480BF
:10063000F581E02D4EE350E069ED71E084ED91E04D
:1006400009940E940B030C9413030F931F93462FDE
:10065000082F672F702F842F1F910F9108952F92CD
:100660003F924F925F926F927F928F929F92AF9242
:10067000BF92CF92DF92EF92FF920F931F93CF938F
:10068000DF93CDB7DEB766970FB6F894DEBF0FBE27
:10069000CDBF988B8F870E94210321EA32E03A83F5
:1006A000298332EAC32E32E0D32E43EAE42E42E01D
:1006B000F42E42E952E05E8B4D8B00E010E0A98100
:1006C000BA818C91882309F44BC1ED89FE8925817B
:1006D00036814901F1E08F1A9108C80101968430F2
:1006E000910511F480E090E0A901440F551F5A874D
:1006F0004987212C312C2D893E89225031093A8B92
:10070000298B61E1689FA001699F500D11244D550F
:100710005D4F5E834D8329853A85225031093C8B9C
:100720002B8B97FCD1C0D6018C918823B1F004307B
:1007300011051CF4ED81FE810AC00430110559F049
:10074000A989BA898C91882331F0ED89FE8980814D
:10075000882309F4B9C0D6011C9289859A85820D37
:10076000931D82509048880F991FAD89BE891396BA
:10077000ED91FC911497E80FF91F608171818281DE
:1007800093810E942503ED89FE890780F085E02D85
:100790002B893C89220D331DE20FF31FFC83EB8371
:1007A000272F30E038872F83462F50E05C874B8718
:1007B000E82FF0E0FE87ED87E091D201F091D301C0
:1007C0002091A6013091A701412C512CAB81BC8115
:1007D0008D919C91481659060CF067C0AD89BE8971
:1007E00011968D919C9112978E0F9F1F1B964D9184
:1007F0005C911C97841B950B01968E33910508F034
:100800004BC0A901440F551F1D96AD90BC901E977B
:10081000A40EB51E3C01660C771C680E791EA30160
:1008200047525E4F3A01D5014D915C916F817885B9
:10083000649FC001659F900D749F900D112464E624
:1008400070E00E94E30FD30111966C93D5014D9196
:100850005C916B857C85649FC001659F900D749F42
:10086000900D112464E670E00E94E30FD3016C93B5
:10087000D5014D915C916D857E85649FC001659F1A
:10088000900D749F900D112464E670E00E94E30FB8
:10089000D30112966C9302C097FF03C02F5F3F4FA6
:1008A0003196BFEF4B1A5B0A91CFF093D301E093DF
:1008B000D2013093A7012093A601B1E08B1A9108D1
:1008C000E2E02E1A31082DCF1092D3011092D201FE
:1008D000D6018C9181110AC0ED89FE8981819281B6
:1008E00021853285820F931F92838183D7018C915A
:1008F000811119C0ED89FE89818192810430110531
:100900002CF4449784F0F1E0FC930DC0AD89BE89CE
:1009100019962D913C911A97821B930B06971CF008
:1009200021E0F7012083AD89BE8911968D919C91BC
:1009300012971B962D913C911C97821B930BCE977F
:100940007CF012961C921E921197043011050CF443
:1009500046C0E981FA811082D6011C92F70110820B
:100960001092A7011092A6010F5F1F4F29813A81B3
:100970002F5E3F4F3A83298331E1C30ED11C41E101
:10098000E40EF11C2D893E892F5E3F4F3E8B2D8B4F
:100990000E30110509F093CE0E9413034F8558893C
:1009A000BA01882777FD8095982F66960FB6F89440
:1009B000DEBF0FBECDBFDF91CF911F910F91FF9092
:1009C000EF90DF90CF90BF90AF909F908F907F90EF
:1009D0006F905F904F903F902F900C947B08E1E0D8
:1009E000D601EC93D7011C92BBCF80E590E00C942C
:1009F0002F030F93001401E00A95F1F70F9108956A
:100A00000F93001402E00A95F1F70F910895DF9219
:100A1000EF92FF920F931F93CF93DF93F894DC0133
:100A20001296FC9012971396ED91FC911497EA019F
:100A3000CC0FDD1FC40FD51FC60FD71FE080EF28D6
:100A40008081F094F822F0828B01C017D10708F45E
:100A50005BC0F801D1908F01E5B8001400140014B8
:100A6000D7FEF5B80E94F904F5B80E940005E5B874
:100A7000001400140014D6FEF5B80E94F904F5B86D
:100A80000E940005E5B8001400140014D5FEF5B866
:100A90000E94F904F5B80E940005E5B8001400149E
:100AA0000014D4FEF5B80E94F904F5B80E940005C0
:100AB000E5B8001400140014D3FEF5B80E94F90440
:100AC000F5B80E940005E5B8001400140014D2FE29
:100AD000F5B80E94F904F5B80E940005E5B80014C5
:100AE00000140014D1FEF5B80E94F904F5B80E9474
:100AF0000005E5B8001400140014D0FEF5B80E94FB
:100B0000F904F5B80014A1CF7894DF91CF911F912B
:100B10000F91FF90EF90DF9008958DE691E0909314
:100B2000D5018093D401089581E893E00E94A60541
:100B30009093A9018093A8010C94C8028091B403FA
:100B400090E02091B503821B910908952091B5038F
:100B50008091B403281750F4E22FF0E0EA54FC4FE0
:100B6000808190E02F5F2093B50308958FEF9FEF72
:100B70000895E091B5038091B403E81730F4F0E0F4
:100B8000EA54FC4F808190E008958FEF9FEF089525
:100B90000895E0918D03F0918E033097E1F030914C
:100BA000B5032091B4033217B0F040E0242F30E0B9
:100BB0002617370754F4DC01A20FB31F5C91D9014B
:100BC000AA54BC4F5C934F5FF1CF1092B503609372
:100BD000B403CB0109940895E0918F03F091900341
:100BE000309729F01092930310929203099408957C
:100BF000CF92DF92EF92FF920F931F93CF93DF93E9
:100C00007C01CB018A0120919103222389F0EB0121
:100C10006B01C40ED51ECC15DD0569F06991D701B5
:100C2000ED91FC910190F081E02DC7010995F3CF82
:100C3000642F0E94AE06C801DF91CF911F910F91E2
:100C4000FF90EF90DF90CF900895CF93DF931F92A6
:100C5000CDB7DEB76983209191032223D1F0209193
:100C60009203203240F021E030E0FC013383228304
:100C700080E090E015C080919303E82FF0E0EC56FF
:100C8000FC4F998190838F5F8093930380939203AD
:100C900005C061E0CE0101960E94AE0681E090E0C1
:100CA0000F90DF91CF910895FC011382128248EEDC
:100CB00053E060E070E044835583668377838BE77D
:100CC00091E09183808308951092B5031092B4034C
:100CD00010929303109292030C948C06CF93DF939F
:100CE000EC01862F0E94AA068CEE95E00E94CC06AD
:100CF00089EC95E00E94C706CE01DF91CF910C945C
:100D000064060C946E0670938E0360938D030895B1
:100D100081E893E00C9454061092430481E08093A0
:100D200041041092400461E082E00E94670961E0A2
:100D300083E00E946709E9EBF0E080818E7F808389
:100D400080818D7F808388E48093B80085E48093E0
:100D5000BC000895880F8093BA000895613298F41A
:100D600020914304243089F46093F803FC018AEF56
:100D700093E0DC012A2F281B261718F421912D93CC
:100D8000F9CF80E0089581E0089582E0089590937E
:100D90003D0480933C04089590933F0480933E0467
:100DA000089585ED8093BC008091BC0084FDFCCF4C
:100DB00010924304089585EC8093BC001092430484
:100DC00008951F920F920FB60F9211242F933F9305
:100DD0004F935F936F937F938F939F93AF93BF9343
:100DE000EF93FF938091B900887F803609F49CC00F
:100DF00068F5883209F45BC090F4803109F454C07E
:100E000038F4882309F4F5C0883009F44DC0F5C0E2
:100E1000883109F44CC0803209F45DC0EEC08034E2
:100E200009F468C048F4803309F455C0883309F0E8
:100E3000E4C08093D603A8C0803509F44FC088353C
:100E400009F45DC0883409F0D8C0D5C0883909F4E8
:100E5000C6C0A8F4883709F467C038F4883609F4A6
:100E600063C0803709F460C0C8C0883809F4B7C0CF
:100E7000803909F45FC0803809F0BFC05BC0803B97
:100E800009F485C038F4803A09F466C0883A09F458
:100E90007EC0B3C0803C09F4A6C0883C09F4A3C05E
:100EA000883B09F489C0A9C08091420410C0909188
:100EB0001B0480911A04981770F5E0911B0481E0DF
:100EC0008E0F80931B04F0E0E45EFB4F80818093E3
:100ED000BB0085EC85C08093D6038DC0E0911B04D8
:100EE00081E08E0F80931B048091BB00F0E0E45EF4
:100EF000FB4F808390911B0480911A046DC0E09198
:100F00001B0481E08E0F80931B048091BB00F0E0F6
:100F1000E45EFB4F80838091410481116CC081E0CD
:100F20008093400484EA60C083E08093430410927D
:100F3000D703CFCF8091D703803208F050C0E09123
:100F4000D70381E08E0F8093D7038091BB00F0E040
:100F5000E852FC4F8083BDCF8091D703803230F4BC
:100F6000E091D703F0E0E852FC4F10820E94D106D6
:100F70006091D70370E0E0913C04F0913D0488ED6E
:100F800093E009951092D7030E94DB0636C084E0F7
:100F9000809343041092F9031092F803E0913E0409
:100FA000F0913F0409958091F803811105C081E01B
:100FB0008093F8031092FA03E091F90381E08E0F19
:100FC0008093F903F0E0E650FC4F80818093BB00F2
:100FD0009091F9038091F803981708F47ACF85E887
:100FE0008093BC000AC085EC8093BC00109243043F
:100FF00004C01092D6030E94D106FF91EF91BF91D9
:10100000AF919F918F917F916F915F914F913F91A0
:101010002F910F900FBE0F901F9018951F920F9257
:101020000FB60F9211242F933F938F939F93AF93FB
:10103000BF938091450490914604A0914704B091DC
:1010400048043091440423E0230F2D3720F4019607
:10105000A11DB11D05C026E8230F0296A11DB11DDB
:10106000209344048093450490934604A09347043E
:10107000B09348048091490490914A04A0914B0494
:10108000B0914C040196A11DB11D80934904909329
:101090004A04A0934B04B0934C04BF91AF919F912D
:1010A0008F913F912F910F900FBE0F901F90189529
:1010B0003FB7F8948091490490914A04A0914B0461
:1010C000B0914C0426B5A89B05C02F3F19F001969E
:1010D000A11DB11D3FBF6627782F892F9A2F620F60
:1010E000711D811D911D42E0660F771F881F991F9A
:1010F0004A95D1F70895CF92DF92EF92FF92CF9366
:10110000DF936B017C010E945808EB01C114D104EC
:10111000E104F10489F00E94C50D0E9458086C1B7F
:101120007D0B683E734090F381E0C81AD108E10856
:10113000F108C851DC4FEACFDF91CF91FF90EF90DB
:10114000DF90CF900895789484B5826084BD84B593
:10115000816084BD85B5826085BD85B5816085BDB2
:10116000EEE6F0E0808181608083E1E8F0E01082CB
:10117000808182608083808181608083E0E8F0E00C
:10118000808181608083E1E9F0E0808182608083FA
:10119000808181608083E0E9F0E0808181608083EC
:1011A000E1ECF0E0808184608083808182608083D4
:1011B000808181608083E3ECF0E0808181608083C6
:1011C000E0ECF0E0808182608083E2ECF0E08081FE
:1011D00081608083EAE7F0E08081846080838081A1
:1011E0008260808380818160808380818068808349
:1011F0000895823108F08251E82FF0E0E452FF4F69
:10120000E49180917B00E3FB222720F930E095E018
:10121000220F331F9A95E1F78F7D822B80937B00FD
:10122000E77080915E0120E4829FC0011124E82BC9
:10123000E0937C0080917A00806480937A008091B2
:101240007A0086FDFCCF809178002091790090E0B3
:10125000922B089590E0FC013197EF30F105B0F545
:10126000E15AFF4F0C943810809180008F7703C0B3
:10127000809180008F7D8093800008958091800010
:10128000877FF9CF84B58F7702C084B58F7D84BD09
:101290000895809190008F7707C0809190008F7D96
:1012A00003C080919000877F809390000895809183
:1012B000C0008F7703C08091C0008F7D8093C000F5
:1012C00008958091C200877F8093C20008950F9394
:1012D0001F93CF93DF931F92CDB7DEB7282F30E057
:1012E000F901E851FF4F8491F901EA5FFE4F149133
:1012F000F901EC5DFE4F04910023C9F0882321F031
:1013000069830E942A096981E02FF0E0EE0FFF1F38
:10131000EE5BFE4FA591B4919FB7F8948C9161114B
:1013200003C01095812301C0812B8C939FBF0F9028
:10133000DF91CF911F910F91089508950E94A30806
:101340000E949D098DE494E00E945F0D0E94B0020E
:10135000C0E0D0E00E94F5042097E1F30E94000075
:10136000F9CFCF92DF92EF92FF920F931F93CF931B
:10137000DF936C017A01EB01E60EF71E00E010E04E
:10138000CE15DF0561F06991D601ED91FC910190D8
:10139000F081E02DC6010995080F191FF1CFC80192
:1013A000DF91CF911F910F91FF90EF90DF90CF9041
:1013B0000895409151045091520420914F0430916E
:1013C000500442175307B4F49091E8009570E1F38C
:1013D0009091E80092FD19C08093F1008091510432
:1013E0009091520401968F739927892B19F48EEFEF
:1013F0008093E8008091510490915204019690935B
:1014000052048093510481E0089580E00895CF92C2
:10141000DF92FF920F931F93CF93DF931F92CDB76D
:10142000DEB7082F162F862F880F8E5F99830E94B4
:10143000D90983E00E94D909F02EC02E9981D92EB6
:101440008C2D8F19811778F4F60184910E94D909A7
:10145000082F80E00E94D9098023FFEFCF1ADF0A0E
:101460008111EECF01C081E00F90DF91CF911F91EC
:101470000F91FF90DF90CF900895615030F0209150
:10148000F100FC0120830196F8CF289884E6809330
:10149000540408952FB7FC012083F894677060937B
:1014A000E9000895CF93DF931F92CDB7DEB7682F81
:1014B000CE0101960E944A0A8091F20099819FBF55
:1014C0000F90DF91CF910895FF920F931F93CF93C9
:1014D000DF9300D0CDB7DEB7F62E8A01909153048A
:1014E000992311F057FF03C08FEF9FEF2BC0682F98
:1014F000CE0101967A830E944A0A8091F20090E020
:10150000A8017A81801791070CF4AC01EF2DF72F19
:10151000F40E84E6FE1639F02898809354049091D6
:10152000F1009193F7CF4115510521F08091F20020
:10153000882321F089818FBFCA0104C08BE6809384
:10154000E800F8CF0F900F90DF91CF911F910F918E
:10155000FF900895CF93DF931F92CDB7DEB741E0A0
:1015600050E0BE016F5F7F4F0E94640A019719F43B
:10157000898190E002C08FEF9FEF0F90DF91CF91B4
:101580000895CF93DF931F92CDB7DEB7682FCE01BA
:1015900001960E944A0A9091E800892F807295FF77
:1015A00004C09091F20080E4891B99819FBF0F9045
:1015B000DF91CF9108956F927F928F929F92AF9219
:1015C000BF92CF92DF92EF92FF920F931F93CF9330
:1015D000DF931F92CDB7DEB7782E7B01C42EB52ED8
:1015E00080915304882369F0042F152F8AEFD82E99
:1015F000872D8072982E9AE3A92E872D8074882ECD
:1016000011C08FEF9FEF57C0872D0E94C10A682E2F
:1016100081110CC0DA94A9F361E070E080E090E001
:101620000E947B080115110579F73BC0282F30E097
:10163000021713070CF4602E672DCE0101960E944D
:101640004A0A8091E80085FF29C0262D30E0021B60
:10165000130B992039F06A948FEF6816B1F010924D
:10166000F100F9CFF701862D77FE07C0815058F0C1
:1016700094919093F1003196F9CF815020F091919F
:101680009093F100FACFE20EF31E8091E80085FFFF
:101690000FC00115110511F481100AC089818FBF97
:1016A000C1CF5D9884E6809355048C2D9B2D03C09B
:1016B000A092E800F3CF0F90DF91CF911F910F918F
:1016C000FF90EF90DF90CF90BF90AF909F908F9062
:1016D0007F906F9008951092E9001092520410923A
:1016E00051049093500480934F040895CF92DF9259
:1016F000FF920F931F93CF93DF9300D0CDB7DEB748
:10170000F82E8A016B0101151105B1F0F601F7FE03
:1017100002C0849101C0808149835A830E94D90903
:1017200001501109FFEFCF1ADF0A49815A81811157
:10173000EACF8FEF9FEF01C0CA010F900F90DF91AA
:10174000CF911F910F91FF90DF90CF9008951F933D
:10175000CF93DF931F92CDB7DEB7162F2091E8000D
:1017600022FFFCCF612F79830E943D0A8BEF80938B
:10177000E800812F7981972F0F90DF91CF911F91F2
:101780000895CF93DF931F92CDB7DEB71982CE01B4
:1017900001960E94230ECE0101960E94BE0E898101
:1017A00090E00F90DF91CF9108951F920F920FB6A6
:1017B0000F921124EF92FF920F931F932F933F9359
:1017C0004F935F936F937F938F939F93AF93BF9349
:1017D000EF93FF93CF93DF93CDB7DEB76297DEBF72
:1017E000CDBF1092E9008091E80083FFEBC068E074
:1017F000CE010A960E943D0A82EF8093E8009A8506
:1018000097FF05C08091E80080FFFCCF03C08EEFFA
:101810008093E800892F807609F0B9C08B8581110B
:1018200005C01092F1001092F100C5C0282F2D7F45
:10183000213009F4C0C0853049F48091E80080FF70
:10184000FCCF8C8580688093E300B5C0863009F0BA
:1018500076C02D85E888F988223071F580E090E027
:101860002A8B0E946B0B0E94C10B99E08E010F5FC7
:101870001F4FF801392F11923A95E9F799832A8978
:101880002A8391E09E8390E898879AEF9987209128
:10189000510430915204275F3F4F3C832B838D834B
:1018A000C7010E946B0B49E050E0B80180E00E9444
:1018B000760B0E94C10B7FC0C7012A8B0E946B0B65
:1018C0002A89223241F482E290E00E94C90E892BDB
:1018D00009F071C074C0213069F48889998908972A
:1018E00011F420934E0480914E04811118C067E6D4
:1018F00071E01AC0233009F062C08C85882391F012
:10190000823021F460E185E891E006C0813009F081
:1019100056C06BE089E791E00E94070A4AC065E57E
:1019200071E002C066E971E06115710509F447C014
:10193000FB01449150E080E80E94760B3CC0873068
:1019400009F43DC0883021F481E08093F10033C078
:10195000893089F5937099F5E1E5F1E081E021E0C6
:1019600096E38093E9002093EB0034913093EC00F0
:101970009093ED008F5F3196853099F78EE78093D5
:10198000EA001092EA008C858093530414C0888981
:1019900099890E946B0B8E85811105C0CE010A9634
:1019A0000E942E0E06C0823051F4CE010A960E948B
:1019B000F10E882321F08EEF8093E80003C081E2CE
:1019C0008093EB0062960FB6F894DEBF0FBECDBFDA
:1019D000DF91CF91FF91EF91BF91AF919F918F9147
:1019E0007F916F915F914F913F912F911F910F9137
:1019F000FF90EF900F900FBE0F901F90189580935F
:101A0000E9008091F200882319F08AE38093E800CE
:101A100008951F920F920FB60F9211242F933F93A8
:101A20004F935F936F937F938F939F93AF93BF93E6
:101A3000EF93FF938091E1001092E10083FF0FC0CC
:101A40001092E90091E09093EB001092EC0092E389
:101A50009093ED001092530498E09093F00082FF71
:101A60001DC083E00E94FF0C80915504882339F04B
:101A700080915504815080935504882369F08091AA
:101A80005404882359F08091540481508093540465
:101A9000811104C0289A02C05D9AF1CFFF91EF91A5
:101AA000BF91AF919F918F917F916F915F914F9176
:101AB0003F912F910F900FBE0F901F90189510928D
:101AC000530481E08093D70080EA8093D80082E1BC
:101AD00089BD09B400FEFDCF61E070E080E090E0D8
:101AE0000E947B0880E98093D8008CE08093E2001C
:101AF0001092E000559A209A0895611571058105AC
:101B0000910511F00C94C0100895CF93DF9300D08D
:101B100000D0CDB7DEB79B01AC0161157105810521
:101B2000910569F069833A834B835C830E94BB1003
:101B300029813A814B815C810E94191003C060E0C9
:101B400070E0CB010F900F900F900F90DF91CF912D
:101B50000895CF92DF92EF92FF926B017C016217A2
:101B600073078407950764F4CA01B9016C197D09EC
:101B70008E099F090E94850D6C0D7D1D8E1D9F1D78
:101B8000FF90EF90DF90CF9008950895CF93DF936B
:101B90001F92CDB7DEB76983DC01ED91FC91028025
:101BA000F381E02D41E050E0BE016F5F7F4F09956A
:101BB0000F90DF91CF910895CF93DF93EC018C8547
:101BC0009D8597FF05C082E00E94AA0A9D878C87A9
:101BD0008C859D85DF91CF91089583E00C94FF0C57
:101BE000FC018485958597FD06C082E00E94520A1B
:101BF00090E00196089582E00E94520A90E00895D4
:101C0000FC018485958597FD05C02FEF3FEF358753
:101C10002487089582E00C94AA0ACF93DF93EC0105
:101C200080916601882331F083E00E94DB0A181658
:101C3000190634F081E090E09B838A8380E090E095
:101C4000DF91CF910895FC0120812E5F208342E433
:101C500050E06AE971E080E80C94760BFC01818128
:101C60009081913A59F4813209F03CC047E050E04C
:101C70006FE571E080E00E94760B43C0913291F5F0
:101C8000803239F467E070E08FE591E00E94A70BA5
:101C900006C0823209F035C082818093660180914E
:101CA0005F0190916001A0916101B0916201803B60
:101CB0009440A105B105C1F48091660180FD14C076
:101CC00087E797E790930108809300082BE088E16D
:101CD00090E00FB6F894A895809360000FBE209313
:101CE00060000FC080E0089588E10FB6F8948093FB
:101CF0006000109260000FBEA8951092010810922B
:101D0000000881E00895109259041092580488EE5A
:101D100093E0A0E0B0E080935A0490935B04A0931A
:101D20005C04B0935D048BE891E09093570480933A
:101D300056048FEF9FEF909363048093620408959D
:101D4000FF920F931F93CF93DF93EC01F62EE88160
:101D5000F9810480F581E02D09958C01E881F981F4
:101D60000680F781E02D6F2DCE010995C8019927D6
:101D7000DF91CF911F910F91FF900895FC01208179
:101D80002F5F208349E150E06CE572E080E80C941D
:101D9000760B45E650E065E772E080E80C94760B40
:101DA000EF92FF920F931F93CF93DF931F92CDB7C4
:101DB000DEB789838B017A0141E050E0BE016F5F9D
:101DC0007F4F84E00E94DB0AA701B80184E40E94EF
:101DD000DB0A0F90DF91CF911F910F91FF90EF9051
:101DE0000895FC0191818081813A31F481E0913044
:101DF00091F0933089F411C0813271F49B3021F459
:101E000082818093680105C09A3031F48281809389
:101E1000670181E00895089580E0089548E050E06A
:101E200082E00C94D00ECF93DF93DC01683818F079
:101E3000E8E7E60F25C0E62FF0E067FF11C0E058A5
:101E4000F10981E090E001C0880FEA95EAF7149665
:101E50009C911497982B14969C931497E0E010C0D3
:101E6000E452FE4FE491EE2309F440C0E7FF08C0BE
:101E700014968C911497826014968C931497EF7734
:101E800016968C9116978E1741F117968C9117978D
:101E90008E1719F118968C9118978E17F1F01996E4
:101EA0008C9119978E17C9F01A968C911A978E17E4
:101EB000A1F01B968C911B978E1779F080E090E033
:101EC000ED01C80FD91F2E81211102C0EE8305C07C
:101ED000019686309105A1F709C0BD016C5F7F4F67
:101EE000CD010E940E0F81E090E008C081E090E0FB
:101EF00013969C938E93129780E090E0DF91CF91A0
:101F00000895683818F0E8E7E60F25C0E62FF0E0FE
:101F100067FF12C0E058F10921E030E001C0220F54
:101F2000EA95EAF72095DC0114963C911497322348
:101F300014963C93E0E00FC0E452FE4FE491EE2390
:101F400029F1E7FF08C0DC0114962C9114972D7F2E
:101F500014962C93EF7720E030E0EE2351F0DC0173
:101F6000A20FB31F16964C9116974E1302C01696E9
:101F70001C922F5F3F4F2630310579F7BC016C5F13
:101F80007F4F0E940E0F81E090E0089580E090E086
:101F90000895FC0116821782108611861286138618
:101FA0001482BC016C5F7F4F0C940E0F1092B20430
:101FB0001092A9041092A8048BE991E09093A704D1
:101FC0008093A604089597FB072E16F4009407D07B
:101FD00077FD09D00E94491007FC05D03EF490958A
:101FE00081959F4F0895709561957F4F0895A1E267
:101FF0001A2EAA1BBB1BFD010DC0AA1FBB1FEE1F83
:10200000FF1FA217B307E407F50720F0A21BB30BCD
:10201000E40BF50B661F771F881F991F1A9469F749
:1020200060957095809590959B01AC01BD01CF01A5
:102030000895052E97FB1EF400940E94301057FD62
:1020400007D00E94F70F07FC03D04EF40C94301019
:1020500050954095309521953F4F4F4F5F4F0895D4
:1020600090958095709561957F4F8F4F9F4F089504
:10207000EE0FFF1F0590F491E02D09940E945D1072
:10208000A59F900DB49F900DA49F800D911D1124CC
:102090000895AA1BBB1B51E107C0AA1FBB1FA617AF
:1020A000B70710F0A61BB70B881F991F5A95A9F701
:1020B00080959095BC01CD010895A29FB001B39F7A
:1020C000C001A39F700D811D1124911DB29F700D41
:1020D000811D1124911D08958F929F92AF92BF92FE
:1020E000CF92DF92EF92FF92CF93DF93EC01688162
:1020F00079818A819B81611571058105910521F4A2
:1021000064E279ED8BE597E02DE133EF41E050E0BB
:102110000E94191049015A019B01AC01A7EAB1E4E0
:102120000E943E106B017C01ACEEB4EFA50194015E
:102130000E94D310C60ED71EE81EF91EF7FE06C079
:1021400081E0C81AD108E10880E8F80AC882D9827B
:10215000EA82FB82C701B6019F77DF91CF91FF90A2
:10216000EF90DF90CF90BF90AF909F908F900895A9
:102170000E946C10089580E091E00E946C10089518
:102180006093000170930101809302019093030119
:102190000895DC0101C06D9341505040E0F708956F
:1021A000B7FF0C943E100E943E10821B930B0895C3
:0421B000F894FFCFD1
:1021B4000100000004006400640064006400640022
:1021C40064000600060001000000FF0000FF00009C
:1021D400FF000000FFFF000000FFFF006600660034
:1021E400CC00FF0000ABFF00FF0900000080FF00EF
:1021F40005000A000F00140019001E001E0019003B
:1022040014000F000A0005000C00FFFFFF0001008E
:10221400E1000000000000010100000000A5019B96
:10222400010705A201A401000000002506F8059E8F
:1022340005A605B905C80500000000C60D0D0EF081
:102244000D000EDC0DED0D00000000A00EB1091311
:062254000F810FC90F000D
:00000001FF
