:100000007CC00000A8C00000A6C00000A4C0000082
:10001000A2C00000A0C000009EC000009CC0000064
:100020009AC0000098C0000096C0000094C0000074
:1000300092C0000090C000008EC000008CC0000084
:100040008AC0000088C0000086C0000084C0000094
:1000500082C0000080C000007EC00000C5C3000058
:100060007AC0000049C600007DC6000074C00000D0
:1000700072C0000070C000006EC000006CC00000C4
:100080006AC0000068C0000066C0000064C00000D4
:1000900062C0000060C000005EC000005CC00000E4
:1000A0005AC0000058C0000056C0000054C00000F4
:1000B00052C0000050C000004EC000004CC0000004
:1000C0004AC0000048C0000046C0000044C0000014
:1000D00042C0000040C000003EC000003CC0000024
:1000E0003AC000003E01430148014D015201570151
:1000F0005E0165016C01E003E40611241FBECFEF31
:10010000D1E2DEBFCDBF00E00CBF12E0A0E0B2E064
:10011000E8E1F1E100E00BBF02C007900D92AE37BD
:10012000B107D9F724E0AEE7B2E001C01D92A23DCD
:10013000B207E1F710E0CAEFD0E000E005C0229777
:100140000109FE010BBF5CD7C63FD10780E008075D
:10015000B1F77ED6DFC754CFDC01ED91FC91019061
:10016000F081E02D199481E008950895E1E0F1E037
:1001700020812064208320E4FC01228322E031E0FE
:100180003483238308952F923F924F925F926F9210
:100190007F928F929F92AF92BF92CF92DF92EF9217
:1001A000FF920F931F93CF93DF931F921F92CDB7B0
:1001B000DEB74090160250901702E0900402F090D3
:1001C0000502C0901202D0901302A7E7B3E02AE51F
:1001D00033E03A83298380E090E020E9222E22E078
:1001E000322E34E9632E32E0732E48E9842E42E049
:1001F000942E5CE9A52E52E0B52E60EA72E041E053
:1002000050E008E512E0E981FA81108A1786833010
:100210009105FCF4009731F0208131812B5E3F4F36
:10022000308B2787E981FA81548B438B2AE532E0B2
:10023000328B218B168B058B508F478B2CE030E057
:10024000328F218F20E432E0348F238F31E03C93D2
:1002500058C0E981FA81548A438A9C0124503109AB
:100260002930310520F42E583F4FF901B9C624EA50
:1002700032E0309399032093980334C07093A8031D
:100280006093A7032FC0B092B703A092B6032AC011
:100290009092C6038092C50325C07092D5036092E8
:1002A000D40320C03092E4032092E3031BC0ECE8A7
:1002B000F2E0F093F303E093F20314C028E832E095
:1002C00030930204209301040DC0E4E8F2E0F093BF
:1002D0001104E093100406C020E832E030932004BB
:1002E00020931F0424E132E0E981FA81368B258BCB
:1002F000F08EE78AD28EC18E26E032E0348F238FD3
:100300001C9201961F96E981FA813F96FA83E98350
:100310008D30910509F077CF0F900F90DF91CF913D
:100320001F910F91FF90EF90DF90CF90BF90AF9013
:100330009F908F907F906F905F904F903F902F9005
:100340000895E091AA02F091AB020190F081E02DB6
:100350008AEA92E0199526E040E855E260E070E014
:1003600085E394E069D40FCFCF93DF9380E030D35F
:10037000BC01882777FD8095982F9CD5E4EAF3E0AF
:1003800083E090E02081211124C02FE0289FE0012C
:10039000299FD00D1124C759DC4F81E08E872AE0B8
:1003A00030E040E050E060E070E0CB01ACD5FB0114
:1003B000EE0FFF1FEE0FFF1FE85EFD4F8081918162
:1003C000A281B381EA81FB8180839183A283B3837D
:1003D00005C001963F968D309105A1F6DF91CF9132
:1003E00008954AEB50E063E070E08FEA92E085C642
:1003F000E091AA02F091AB020480F581E02D4EE37A
:1004000050E06FEA72E08AEA92E01994EADFF0CFF6
:100410000F931F93462F082F672F702F842F1F9144
:100420000F9108952F923F924F925F926F927F9219
:100430008F929F92AF92BF92CF92DF92EF92FF92F4
:100440000F931F93CF93DF93CDB7DEB72E970FB6E1
:10045000F894DEBF0FBECDBF9A878987D7DF97E7B5
:10046000E92E93E0F92E29E633E03E872D8700E060
:1004700010E0D7018C91882309F4D1C0ED85FE8569
:10048000848195811C01F1E02F1A31089C01220F13
:10049000331F3C832B83C12CD12C225031093C8744
:1004A0002B8737FCA1C08B819C818C0D9D1D8250B8
:1004B0009048880F991FAD85BE851296ED91FC91ED
:1004C0001397E80FF91F6081718182819381A0DF0A
:1004D000ED85FE85668077802B853C852C0D3D1D46
:1004E000620E731E272F30E03A832983462F50E097
:1004F0005E834D83E82FF0E0F887EF838090A802B9
:100500009090A902A0907E02B0907F02412C512CC5
:10051000D3018D919C91481659060CF056C0AD85BB
:10052000BE858D919C911197880D991D8E339105F3
:100530000CF047C0A501440F551F1C962D913C910E
:100540001D97240F351FFC01EE0FFF1FE80FF91F49
:10055000E155FD4FD9014D915C9169817A81649F8C
:10056000C001659F900D749F900D112464E670E0AA
:10057000E6D46183D9014D915C916D817E81649F48
:10058000C001659F900D749F900D112464E670E08A
:10059000D6D46083D9012D913C914F815885429FDB
:1005A000C001439F900D529F900D112464E670E0AE
:1005B000C6D462835FEFA51AB50AB4016F5F7F4F9F
:1005C0004B017FEF471A570AA3CF9092A90280925E
:1005D000A802B0927F02A0927E02B1E02B1A3108ED
:1005E000E2E0CE1AD1085DCF1092A9021092A802C3
:1005F000AD85BE858D919C91119718962D913C915A
:100600001997820F931F11969C938E93CE973CF06F
:100610001D921C920330110514F0F7011082109204
:100620007F0210927E020F5F1F4FFFE0EF0EF11C62
:100630002D853E85215F3F4F3E872D870D3011056B
:1006400009F017CFD5DE49855A85BA01882777FD8D
:100650008095982F2E960FB6F894DEBF0FBECDBFB3
:10066000DF91CF911F910F91FF90EF90DF90CF908E
:10067000BF90AF909F908F907F906F905F904F90C2
:100680003F902F901EC10F93001401E00A95F1F7DF
:100690000F9108950F93001402E00A95F1F70F915E
:1006A0000895DF92EF92FF920F931F93CF93DF9302
:1006B000F894DC011296FC9012971396ED91FC9140
:1006C0001497EA01CC0FDD1FC40FD51FC60FD71F2B
:1006D000E080EF288081F094F822F0828B01C0172F
:1006E000D10708F464C0F801D1908F01E0920201B3
:1006F000001400140014D7FEF0920201C4DFF0923F
:100700000201C8DFE0920201001400140014D6FEBA
:10071000F0920201B8DFF0920201BCDFE092020128
:10072000001400140014D5FEF0920201ACDFF09228
:100730000201B0DFE0920201001400140014D4FEA4
:10074000F0920201A0DFF0920201A4DFE092020128
:10075000001400140014D3FEF092020194DFF09212
:10076000020198DFE0920201001400140014D2FE8E
:10077000F092020188DFF09202018CDFE092020128
:10078000001400140014D1FEF09202017CDFF092FC
:10079000020180DFE0920201001400140014D0FE78
:1007A000F092020170DFF0920201001498CF789469
:1007B000DF91CF911F910F91FF90EF90DF900895FF
:1007C00083E692E09093AB028093AA02089585E3BA
:1007D00094E023D11816190624F485E394E036D169
:1007E000C3DD8CE390E01ECE1F920F920FB60F92E6
:1007F00011242F933F938F939F93AF93BF93809137
:100800002D0490912E04A0912F04B09130043091CA
:100810002C0423E0230F2D3720F40196A11DB11DD8
:1008200005C026E8230F0296A11DB11D20932C04BC
:1008300080932D0490932E04A0932F04B093300442
:100840008091310490913204A0913304B09134042A
:100850000196A11DB11D8093310490933204A093A1
:100860003304B0933404BF91AF919F918F913F9126
:100870002F910F900FBE0F901F9018953FB7F894CF
:100880008091310490913204A0913304B0913404EA
:1008900026B5A89B05C02F3F19F00196A11DB11DDB
:1008A0003FBF6627782F892F9A2F620F711D811DF8
:1008B000911D42E0660F771F881F991F4A95D1F757
:1008C0000895CF92DF92EF92FF92CF93DF936B0167
:1008D0007C01D4DFEB01C114D104E104F10479F00F
:1008E0002DD3CCDF6C1B7D0B683E7340A0F381E001
:1008F000C81AD108E108F108C851DC4FECCFDF91EC
:10090000CF91FF90EF90DF90CF900895789484B5C9
:10091000826084BD84B5816084BD85B5826085BDFB
:1009200085B5816085BDEEE6F0E0808181608083E1
:10093000E1E8F0E0108280818260808380818160C4
:100940008083E0E8F0E0808181608083E1EBF0E08B
:10095000808184608083E0EBF0E08081816080832F
:10096000E1E9F0E080818260808380818160808322
:10097000E0E9F0E0808181608083E1EAF0E080815D
:1009800082608083808181608083E0EAF0E0808102
:1009900081608083E1E2F1E08081826080838081F8
:1009A00081608083E0E2F1E0808181608083EAE71A
:1009B000F0E0808184608083808182608083808198
:1009C000816080838081806880831092C100089557
:1009D000863308F0865320917B00982F9870277FEC
:1009E000922B90937B00877020915E0290E4299F68
:1009F00090011124822B80937C0080917A00806486
:100A000080937A0080917A0086FDFCCF80917800F7
:100A10002091790090E0922B0895FC01818D228D28
:100A200090E0805C9F4F821B91098F7399270895F6
:100A3000FC01918D828D981731F0828DE80FF11DA8
:100A4000858D90E008958FEF9FEF0895FC01918DC3
:100A5000828D981761F0828DDF01A80FB11D5D9620
:100A60008C91928D9F5F9F73928F90E008958FEF8E
:100A70009FEF08958BED96E0892B39F080E090E0B0
:100A8000892B19F098D1811125C080E090E0892B45
:100A900041F080E090E0892B21F00E94000081115C
:100AA0001CC080E090E0892B41F080E090E0892B31
:100AB00021F00E940000811113C080E090E0892B9A
:100AC000A1F080E090E0892B81F00E94000081116C
:100AD0000AC008950E940000D8CF0E940000E1CF14
:100AE0000E940000EACF0C9400000895FC01848D60
:100AF000DF01A80FB11DA35ABF4F2C91848D90E048
:100B000001968F739927848FA689B7892C93A08922
:100B1000B1898C9180648C93938D848D981306C0D9
:100B20000288F389E02D80818F7D80830895CF93A3
:100B3000DF93EC01888D8823C1F0EA89FB898081ED
:100B400085FD05C0A889B9898C9186FD0EC00FB6B8
:100B500007FCF5CF808185FFF2CFA889B9898C91F8
:100B600085FFEDCFCE01C2DFE8CFDF91CF910895B1
:100B7000CF92DF92FF920F931F93CF93DF931F9239
:100B8000CDB7DEB76C0181E0D60158968C935897AB
:100B90005B969C915B975C968C915C97981307C0D1
:100BA0005096ED91FC915197808185FD2DC0F60105
:100BB000038D10E00F5F1F4F0F731127F02EF6010A
:100BC000848DF81210C00FB607FCF9CFD6015096ED
:100BD000ED91FC915197808185FFF1CFC60169832A
:100BE00085DF6981ECCF838DE80FF11DE35AFF4F5C
:100BF0006083D6015B960C935B975296ED91FC91C6
:100C00005397808180620CC0D6015696ED91FC917D
:100C1000579760835096ED91FC9151978081806445
:100C2000808381E090E00F90DF91CF911F910F9131
:100C3000FF90DF90CF900895BF92CF92DF92EF9216
:100C4000FF92CF93DF93EC016A017B01B22EE8891A
:100C5000F98982E08083411581EE580761057105AD
:100C600099F060E079E08DE390E0A70196017AD1F8
:100C700021503109410951095695479537952795D6
:100C8000211580E1380790F0E889F989108260E841
:100C900074E88EE190E0A701960164D121503109FA
:100CA000410951095695479537952795EC85FD855E
:100CB0003083EE85FF852083188EEC89FD89B08214
:100CC000EA89FB89808180618083EA89FB89808150
:100CD00088608083EA89FB89808180688083EA89D3
:100CE000FB8980818F7D8083DF91CF91FF90EF9092
:100CF000DF90CF90BF9008951F920F920FB60F9282
:100D000011240BB60F922F938F939F93EF93FF9322
:100D1000E0914504F09146048081E0914B04F0910C
:100D20004C0482FD12C0908180914E048F5F8F73BE
:100D300020914F04821751F0E0914E04F0E0EB5CFB
:100D4000FB4F958F80934E0401C08081FF91EF91FE
:100D50009F918F912F910F900BBE0F900FBE0F9010
:100D60001F9018951F920F920FB60F9211240BB679
:100D70000F922F933F934F935F936F937F938F9334
:100D80009F93AF93BF93EF93FF9385E394E0AEDE21
:100D9000FF91EF91BF91AF919F918F917F916F9153
:100DA0005F914F913F912F910F900BBE0F900FBE0F
:100DB0000F901F90189585E394E02FDE21E0892B9A
:100DC00009F420E0822F089510923804109237041D
:100DD00088EE93E0A0E0B0E08093390490933A0469
:100DE000A0933B04B0933C0481E792E090933604D7
:100DF0008093350485EC90E0909342048093410405
:100E000084EC90E0909344048093430480EC90E061
:100E1000909346048093450481EC90E090934804BD
:100E20008093470482EC90E090934A0480934904B5
:100E300086EC90E090934C0480934B0410924E0407
:100E400010924F0410925004109251040895089586
:100E50005DDDFDDF76DACAE3D5E0B9DC2097E9F3A2
:100E600009DEFBCFCF92DF92EF92FF920F931F9399
:100E7000CF93DF936C017A01EB01E60EF71E00E0E1
:100E800010E0CE15DF0561F06991D601ED91FC917E
:100E90000190F081E02DC6011995080F191FF1CFBF
:100EA000C801DF91CF911F910F91FF90EF90DF90DC
:100EB000CF900895611571058105910509F014C160
:100EC0000895CF93DF9300D01F92CDB7DEB79B017B
:100ED000AC01611571058105910559F069833A836B
:100EE0004B835C83FED029813A814B815C815CD04D
:100EF00003C060E070E0CB010F900F900F900F9057
:100F0000DF91CF910895CF92DF92EF92FF926B0124
:100F10007C0162177307840795075CF4CA01B90165
:100F20006C197D098E099F09CCDF6C0D7D1D8E1D0E
:100F30009F1DFF90EF90DF90CF900895089597FB4D
:100F4000072E16F4009406D077FD08D05DD007FC7C
:100F500005D03EF4909581959F4F089570956195C9
:100F60007F4F0895A1E21A2EAA1BBB1BFD010DC0E5
:100F7000AA1FBB1FEE1FFF1FA217B307E407F50749
:100F800020F0A21BB30BE40BF50B661F771F881F25
:100F9000991F1A9469F760957095809590959B01BB
:100FA000AC01BD01CF010895052E97FB16F4009406
:100FB0000FD057FD05D0D6DF07FC02D046F408C09D
:100FC00050954095309521953F4F4F4F5F4F089575
:100FD00090958095709561957F4F8F4F9F4F0895A5
:100FE000EE0FFF1F0590F491E02D199421D0A59FDD
:100FF000900DB49F900DA49F800D911D1124089514
:101000000790F691E02D1994AA1BBB1B51E107C074
:10101000AA1FBB1FA617B70710F0A61BB70B881F88
:10102000991F5A95A9F780959095BC01CD01089517
:10103000A29FB001B39FC001A39F700D811D112419
:10104000911DB29F700D811D1124911D08958F92E5
:101050009F92AF92BF92CF92DF92EF92FF92CF9387
:10106000DF93EC01688179818A819B81611571052B
:101070008105910521F464E279ED8BE597E02DE19E
:1010800033EF41E050E090DF49015A019B01AC0190
:10109000A7EAB1E4ABDF6B017C01ACEEB4EFA501D4
:1010A000940134D0C60ED71EE81EF91EF7FE06C006
:1010B00081E0C81AD108E10880E8F80AC882D9821C
:1010C000EA82FB82C701B6019F77DF91CF91FF9043
:1010D000EF90DF90CF90BF90AF909F908F9008954A
:1010E000B6CF80E092E0B3CF60930002709301022C
:1010F00080930202909303020895DC0101C06D9376
:1011000041505040E0F70895B7FF70CF6FDF821B6A
:08111000930B0895F894FFCF42
:1011180001000000030064006400640064006400CF
:1011280064000600060001000000FF0000FF000048
:10113800FF000000FFFF000000FFFF0066006600E0
:10114800CC00FF0000ABFF00FF0900000080FF009B
:1011580005000A000F00140019001E001E001900E7
:1011680014000F000A0005000C00FFFFFF0001003B
:10117800000000B600AC005103B300B50000000049
:0E11880000B80532070D05260518059705006D
:00000001FF
